{"contracts/AgentVault.sol":{"AgentVault":{"abi":[{"inputs":[],"name":"ReentrancyGuardReentrantCall","type":"error"},{"inputs":[{"internalType":"address","name":"token","type":"address"}],"name":"SafeERC20FailedOperation","type":"error"},{"anonymous":false,"inputs":[{"indexed":true,"internalType":"uint256","name":"vaultId","type":"uint256"},{"indexed":true,"internalType":"address","name":"agent","type":"address"}],"name":"AgentRevoked","type":"event"},{"anonymous":false,"inputs":[{"indexed":true,"internalType":"uint256","name":"vaultId","type":"uint256"},{"indexed":true,"internalType":"address","name":"oldAgent","type":"address"},{"indexed":true,"internalType":"address","name":"newAgent","type":"address"}],"name":"AgentUpdated","type":"event"},{"anonymous":false,"inputs":[{"indexed":true,"internalType":"uint256","name":"vaultId","type":"uint256"},{"indexed":true,"internalType":"address","name":"token","type":"address"},{"indexed":false,"internalType":"uint256","name":"amount","type":"uint256"}],"name":"Deposited","type":"event"},{"anonymous":false,"inputs":[{"indexed":true,"internalType":"uint256","name":"vaultId","type":"uint256"}],"name":"RulesSet","type":"event"},{"anonymous":false,"inputs":[{"indexed":true,"internalType":"uint256","name":"vaultId","type":"uint256"},{"indexed":true,"internalType":"address","name":"token","type":"address"},{"indexed":true,"internalType":"address","name":"to","type":"address"},{"indexed":false,"internalType":"uint256","name":"amount","type":"uint256"}],"name":"Spent","type":"event"},{"anonymous":false,"inputs":[{"indexed":true,"internalType":"uint256","name":"vaultId","type":"uint256"},{"indexed":true,"internalType":"address","name":"owner","type":"address"},{"indexed":true,"internalType":"address","name":"agent","type":"address"}],"name":"VaultCreated","type":"event"},{"anonymous":false,"inputs":[{"indexed":true,"internalType":"uint256","name":"vaultId","type":"uint256"},{"indexed":true,"internalType":"address","name":"token","type":"address"},{"indexed":false,"internalType":"uint256","name":"amount","type":"uint256"}],"name":"Withdrawn","type":"event"},{"inputs":[{"internalType":"address","name":"agent","type":"address"}],"name":"createVault","outputs":[{"internalType":"uint256","name":"vaultId","type":"uint256"}],"stateMutability":"nonpayable","type":"function"},{"inputs":[{"internalType":"uint256","name":"vaultId","type":"uint256"}],"name":"deposit","outputs":[],"stateMutability":"payable","type":"function"},{"inputs":[{"internalType":"uint256","name":"vaultId","type":"uint256"},{"internalType":"address","name":"token","type":"address"},{"internalType":"uint256","name":"amount","type":"uint256"}],"name":"depositToken","outputs":[],"stateMutability":"nonpayable","type":"function"},{"inputs":[{"internalType":"uint256","name":"","type":"uint256"}],"name":"ethBalances","outputs":[{"internalType":"uint256","name":"","type":"uint256"}],"stateMutability":"view","type":"function"},{"inputs":[{"internalType":"uint256","name":"vaultId","type":"uint256"},{"internalType":"address","name":"token","type":"address"}],"name":"getRemainingBudget","outputs":[{"internalType":"uint256","name":"dailyRemaining","type":"uint256"},{"internalType":"uint256","name":"monthlyRemaining","type":"uint256"}],"stateMutability":"view","type":"function"},{"inputs":[{"internalType":"uint256","name":"vaultId","type":"uint256"}],"name":"getRules","outputs":[{"components":[{"internalType":"uint256","name":"maxPerTransaction","type":"uint256"},{"internalType":"uint256","name":"dailyLimit","type":"uint256"},{"internalType":"uint256","name":"monthlyLimit","type":"uint256"},{"internalType":"address[]","name":"allowedRecipients","type":"address[]"},{"internalType":"address[]","name":"allowedTokens","type":"address[]"},{"internalType":"uint256","name":"validFrom","type":"uint256"},{"internalType":"uint256","name":"validUntil","type":"uint256"}],"internalType":"struct IAgentVault.Rules","name":"","type":"tuple"}],"stateMutability":"view","type":"function"},{"inputs":[],"name":"nextVaultId","outputs":[{"internalType":"uint256","name":"","type":"uint256"}],"stateMutability":"view","type":"function"},{"inputs":[{"internalType":"uint256","name":"vaultId","type":"uint256"}],"name":"revokeAgent","outputs":[],"stateMutability":"nonpayable","type":"function"},{"inputs":[{"internalType":"uint256","name":"vaultId","type":"uint256"},{"components":[{"internalType":"uint256","name":"maxPerTransaction","type":"uint256"},{"internalType":"uint256","name":"dailyLimit","type":"uint256"},{"internalType":"uint256","name":"monthlyLimit","type":"uint256"},{"internalType":"address[]","name":"allowedRecipients","type":"address[]"},{"internalType":"address[]","name":"allowedTokens","type":"address[]"},{"internalType":"uint256","name":"validFrom","type":"uint256"},{"internalType":"uint256","name":"validUntil","type":"uint256"}],"internalType":"struct IAgentVault.Rules","name":"rules","type":"tuple"}],"name":"setRules","outputs":[],"stateMutability":"nonpayable","type":"function"},{"inputs":[{"internalType":"uint256","name":"vaultId","type":"uint256"},{"internalType":"address","name":"to","type":"address"},{"internalType":"uint256","name":"amount","type":"uint256"},{"internalType":"address","name":"token","type":"address"}],"name":"spend","outputs":[],"stateMutability":"nonpayable","type":"function"},{"inputs":[{"internalType":"uint256","name":"","type":"uint256"},{"internalType":"address","name":"","type":"address"}],"name":"tokenBalances","outputs":[{"internalType":"uint256","name":"","type":"uint256"}],"stateMutability":"view","type":"function"},{"inputs":[{"internalType":"uint256","name":"vaultId","type":"uint256"},{"internalType":"address","name":"newAgent","type":"address"}],"name":"updateAgent","outputs":[],"stateMutability":"nonpayable","type":"function"},{"inputs":[{"internalType":"uint256","name":"","type":"uint256"}],"name":"vaults","outputs":[{"internalType":"address","name":"owner","type":"address"},{"internalType":"address","name":"agent","type":"address"},{"internalType":"bool","name":"rulesSet","type":"bool"}],"stateMutability":"view","type":"function"},{"inputs":[{"internalType":"uint256","name":"vaultId","type":"uint256"},{"internalType":"address","name":"token","type":"address"},{"internalType":"uint256","name":"amount","type":"uint256"}],"name":"withdraw","outputs":[],"stateMutability":"nonpayable","type":"function"}],"evm":{"bytecode":{"linkReferences":{},"object":"608060405234801561001057600080fd5b5060017f9b779b17422d0df92223018b32b4d1fa46e071723d6817e2486d003becc55f0055611f7d806100446000396000f3fe6080604052600436106100dd5760003560e01c80638f7daf0f1161007f578063b4bd6f4611610059578063b4bd6f46146102c9578063b6b55f25146102e9578063ba7550d4146102fc578063e63697c81461031c57600080fd5b80638f7daf0f1461024f578063a6cfb5221461027c578063b2a8d1df146102a957600080fd5b8063661d49b0116100bb578063661d49b014610162578063694d12611461019a57806386878927146101ba5780638c64ea4a146101da57600080fd5b80630a9306d7146100e257806312ac1763146101045780632eafe18c1461012d575b600080fd5b3480156100ee57600080fd5b506101026100fd366004611bda565b61033c565b005b34801561011057600080fd5b5061011a60005481565b6040519081526020015b60405180910390f35b34801561013957600080fd5b5061014d610148366004611c0f565b610483565b60408051928352602083019190915201610124565b34801561016e57600080fd5b5061011a61017d366004611c0f565b600360209081526000928352604080842090915290825290205481565b3480156101a657600080fd5b506101026101b5366004611c3b565b610558565b3480156101c657600080fd5b506101026101d5366004611c0f565b610906565b3480156101e657600080fd5b506102276101f5366004611c89565b600160208190526000918252604090912080549101546001600160a01b0391821691811690600160a01b900460ff1683565b604080516001600160a01b039485168152939092166020840152151590820152606001610124565b34801561025b57600080fd5b5061026f61026a366004611c89565b610a28565b6040516101249190611ce7565b34801561028857600080fd5b5061011a610297366004611c89565b60026020526000908152604090205481565b3480156102b557600080fd5b506101026102c4366004611d60565b610b8b565b3480156102d557600080fd5b5061011a6102e4366004611da6565b610f84565b6101026102f7366004611c89565b611090565b34801561030857600080fd5b50610102610317366004611c89565b611175565b34801561032857600080fd5b50610102610337366004611bda565b6112a6565b60008381526001602052604090205483906001600160a01b031661037b5760405162461bcd60e51b815260040161037290611dc8565b60405180910390fd5b6001600160a01b0383166103d15760405162461bcd60e51b815260206004820152601960248201527f4167656e745661756c743a20757365206465706f7369742829000000000000006044820152606401610372565b600082116103f15760405162461bcd60e51b815260040161037290611dff565b6104066001600160a01b038416333085611589565b60008481526003602090815260408083206001600160a01b038716845290915281208054849290610438908490611e4c565b90915550506040518281526001600160a01b0384169085907f1599c0fcf897af5babc2bfcf707f5dc050f841b044d97c3251ecec35b9abf80b9060200160405180910390a350505050565b6000828152600460209081526040808320600983528184206001600160a01b03861685529092528220600181015483929190839042106104c45760006104c7565b81545b9050808360010154116104db5760006104eb565b8083600101546104eb9190611e65565b6000888152600a602090815260408083206001600160a01b038b16845290915281206001810154929750914210610523576000610526565b81545b90508085600201541161053a57600061054a565b80856002015461054a9190611e65565b955050505050509250929050565b60008281526001602052604090205482906001600160a01b031661058e5760405162461bcd60e51b815260040161037290611dc8565b60008381526001602052604090205483906001600160a01b031633146105c65760405162461bcd60e51b815260040161037290611e78565b6040805160a080820183528535825260208087013581840190815287850135848601908152928801356060850190815260c08901356080860190815260008b8152600480865288822097518855935160018801559451600287015590516003860155519301929092556005909152908120905b81548110156106a25760008681526007602052604081208354829085908590811061066657610666611ea7565b6000918252602080832091909101546001600160a01b031683528201929092526040019020805460ff1916911515919091179055600101610639565b5060008581526005602052604081206106ba91611b84565b60005b6106ca6060860186611ebd565b905081101561076d5760006106e26060870187611ebd565b838181106106f2576106f2611ea7565b90506020020160208101906107079190611da6565b60008881526005602090815260408083208054600181810183559185528385200180546001600160a01b039096166001600160a01b0319909616861790558b845260078352818420948452939091529020805460ff1916821790559190910190506106bd565b506000858152600660205260408120905b81548110156107e7576000878152600860205260408120835482908590859081106107ab576107ab611ea7565b6000918252602080832091909101546001600160a01b031683528201929092526040019020805460ff191691151591909117905560010161077e565b5060008681526006602052604081206107ff91611b84565b60005b61080f6080870187611ebd565b90508110156108b25760006108276080880188611ebd565b8381811061083757610837611ea7565b905060200201602081019061084c9190611da6565b60008981526006602090815260408083208054600181810183559185528385200180546001600160a01b039096166001600160a01b0319909616861790558c845260088352818420948452939091529020805460ff191682179055919091019050610802565b506000868152600160208190526040808320909101805460ff60a01b1916600160a01b1790555187917f76ac82770c6b88897d65914f6084fef1dbe925bfa94e3bef1791ca2b6d17aeb591a2505050505050565b60008281526001602052604090205482906001600160a01b031661093c5760405162461bcd60e51b815260040161037290611dc8565b60008381526001602052604090205483906001600160a01b031633146109745760405162461bcd60e51b815260040161037290611e78565b6001600160a01b0383166109c35760405162461bcd60e51b81526020600482015260166024820152751059d95b9d15985d5b1d0e881e995c9bc81859d95b9d60521b6044820152606401610372565b600084815260016020819052604080832090910180546001600160a01b031981166001600160a01b038881169182179093559251911692839188917fddebe0203a5cb884d0e59d3c9b1500e3bfdd48633102167eb495f8d80c3bc7ee91a45050505050565b610a686040518060e00160405280600081526020016000815260200160008152602001606081526020016060815260200160008152602001600081525090565b6000828152600460209081526040808320815160e081018352815481526001820154818501526002820154818401528685526005845293829020805483518186028101860190945280845291949360608501939290830182828015610af657602002820191906000526020600020905b81546001600160a01b03168152600190910190602001808311610ad8575b5050505050815260200160066000868152602001908152602001600020805480602002602001604051908101604052809291908181526020018280548015610b6757602002820191906000526020600020905b81546001600160a01b03168152600190910190602001808311610b49575b50505050508152602001826003015481526020018260040154815250915050919050565b60008481526001602052604090205484906001600160a01b0316610bc15760405162461bcd60e51b815260040161037290611dc8565b6000858152600160208190526040909120015485906001600160a01b03163314610c255760405162461bcd60e51b81526020600482015260156024820152741059d95b9d15985d5b1d0e881b9bdd081859d95b9d605a1b6044820152606401610372565b610c2d6115c5565b60008411610c4d5760405162461bcd60e51b815260040161037290611dff565b6001600160a01b038516610ca35760405162461bcd60e51b815260206004820152601a60248201527f4167656e745661756c743a207a65726f20726563697069656e740000000000006044820152606401610372565b60008681526001602081905260409091200154600160a01b900460ff16610d0c5760405162461bcd60e51b815260206004820152601960248201527f4167656e745661756c743a2072756c6573206e6f7420736574000000000000006044820152606401610372565b610d18868686866115e1565b610d23868486611978565b6001600160a01b038316610e5957600086815260026020526040902054841115610d8f5760405162461bcd60e51b815260206004820152601c60248201527f4167656e745661756c743a20696e73756666696369656e7420455448000000006044820152606401610372565b60008681526002602052604081208054869290610dad908490611e65565b90915550506040516000906001600160a01b0387169086908381818185875af1925050503d8060008114610dfd576040519150601f19603f3d011682016040523d82523d6000602084013e610e02565b606091505b5050905080610e535760405162461bcd60e51b815260206004820152601f60248201527f4167656e745661756c743a20455448207472616e73666572206661696c6564006044820152606401610372565b50610f17565b60008681526003602090815260408083206001600160a01b0387168452909152902054841115610ecb5760405162461bcd60e51b815260206004820152601e60248201527f4167656e745661756c743a20696e73756666696369656e7420746f6b656e00006044820152606401610372565b60008681526003602090815260408083206001600160a01b038716845290915281208054869290610efd908490611e65565b90915550610f1790506001600160a01b0384168686611a40565b846001600160a01b0316836001600160a01b0316877f5c0321f3e9b9f197c4b7888184f436fcdecaa1aa532f2b11006049a2a5ef8c9387604051610f5d91815260200190565b60405180910390a4610f7c6001600080516020611f2883398151915255565b505050505050565b60006001600160a01b038216610fd55760405162461bcd60e51b81526020600482015260166024820152751059d95b9d15985d5b1d0e881e995c9bc81859d95b9d60521b6044820152606401610372565b600080549080610fe483611f0e565b9091555060408051606081018252338082526001600160a01b0386811660208085018281526000868801818152898252600193849052888220975188546001600160a01b03191690871617885591519690920180549151969094166001600160a81b031990911617600160a01b95151595909502949094179091559251939450919284917fa8596cc4a052ecc7656e9ca0fb7a10472573699e3aa34ac5659bc37c1b0a44fc91a4919050565b60008181526001602052604090205481906001600160a01b03166110c65760405162461bcd60e51b815260040161037290611dc8565b600034116111165760405162461bcd60e51b815260206004820152601860248201527f4167656e745661756c743a207a65726f206465706f73697400000000000000006044820152606401610372565b60008281526002602052604081208054349290611134908490611e4c565b909155505060405134815260009083907f1599c0fcf897af5babc2bfcf707f5dc050f841b044d97c3251ecec35b9abf80b9060200160405180910390a35050565b60008181526001602052604090205481906001600160a01b03166111ab5760405162461bcd60e51b815260040161037290611dc8565b60008281526001602052604090205482906001600160a01b031633146111e35760405162461bcd60e51b815260040161037290611e78565b600083815260016020819052604090912001546001600160a01b03168061124c5760405162461bcd60e51b815260206004820152601b60248201527f4167656e745661756c743a20616c7265616479207265766f6b656400000000006044820152606401610372565b600084815260016020819052604080832090910180546001600160a01b0319169055516001600160a01b0383169186917f1ee8b1fcad726aaf8b625355cf86f03d512c285181f509be2a18e0359ddaa9b69190a350505050565b60008381526001602052604090205483906001600160a01b03166112dc5760405162461bcd60e51b815260040161037290611dc8565b60008481526001602052604090205484906001600160a01b031633146113145760405162461bcd60e51b815260040161037290611e78565b61131c6115c5565b6000831161133c5760405162461bcd60e51b815260040161037290611dff565b6001600160a01b038416611469576000858152600260205260409020548311156113a85760405162461bcd60e51b815260206004820152601c60248201527f4167656e745661756c743a20696e73756666696369656e7420455448000000006044820152606401610372565b600085815260026020526040812080548592906113c6908490611e65565b9091555050604051600090339085908381818185875af1925050503d806000811461140d576040519150601f19603f3d011682016040523d82523d6000602084013e611412565b606091505b50509050806114635760405162461bcd60e51b815260206004820152601f60248201527f4167656e745661756c743a20455448207472616e73666572206661696c6564006044820152606401610372565b50611527565b60008581526003602090815260408083206001600160a01b03881684529091529020548311156114db5760405162461bcd60e51b815260206004820152601e60248201527f4167656e745661756c743a20696e73756666696369656e7420746f6b656e00006044820152606401610372565b60008581526003602090815260408083206001600160a01b03881684529091528120805485929061150d908490611e65565b9091555061152790506001600160a01b0385163385611a40565b836001600160a01b0316857fcf7d23a3cbe4e8b36ff82fd1b05b1b17373dc7804b4ebbd6e2356716ef2023728560405161156391815260200190565b60405180910390a36115826001600080516020611f2883398151915255565b5050505050565b611597848484846001611a7a565b6115bf57604051635274afe760e01b81526001600160a01b0385166004820152602401610372565b50505050565b6115cd611aec565b6002600080516020611f2883398151915255565b600084815260046020526040902060038101541561164d57806003015442101561164d5760405162461bcd60e51b815260206004820152601c60248201527f4167656e745661756c743a2072756c6573206e6f7420616374697665000000006044820152606401610372565b6004810154156116ab5780600401544211156116ab5760405162461bcd60e51b815260206004820152601960248201527f4167656e745661756c743a2072756c65732065787069726564000000000000006044820152606401610372565b8054156117035780548311156117035760405162461bcd60e51b815260206004820152601c60248201527f4167656e745661756c743a2065786365656473207478206c696d6974000000006044820152606401610372565b600085815260056020526040902054156117935760008581526007602090815260408083206001600160a01b038816845290915290205460ff166117935760405162461bcd60e51b815260206004820152602160248201527f4167656e745661756c743a20726563697069656e74206e6f7420616c6c6f77656044820152601960fa1b6064820152608401610372565b600085815260066020526040902054156118195760008581526008602090815260408083206001600160a01b038616845290915290205460ff166118195760405162461bcd60e51b815260206004820152601d60248201527f4167656e745661756c743a20746f6b656e206e6f7420616c6c6f7765640000006044820152606401610372565b6001810154156118c05760008581526009602090815260408083206001600160a01b038616845290915281206001810154909190421061185a57600061185d565b81545b600184015490915061186f8683611e4c565b11156118bd5760405162461bcd60e51b815260206004820181905260248201527f4167656e745661756c743a206461696c79206c696d69742065786365656465646044820152606401610372565b50505b600281015415611582576000858152600a602090815260408083206001600160a01b0386168452909152812060018101549091904210611901576000611904565b81545b60028401549091506119168683611e4c565b111561196f5760405162461bcd60e51b815260206004820152602260248201527f4167656e745661756c743a206d6f6e74686c79206c696d697420657863656564604482015261195960f21b6064820152608401610372565b50505050505050565b60008381526009602090815260408083206001600160a01b03861684529091529020600181015442106119bf578181556119b56201518042611e4c565b60018201556119d9565b818160000160008282546119d39190611e4c565b90915550505b6000848152600a602090815260408083206001600160a01b0387168452909152902060018101544210611a2057828155611a1662278d0042611e4c565b6001820155611582565b82816000016000828254611a349190611e4c565b90915550505050505050565b611a4d8383836001611b1e565b611a7557604051635274afe760e01b81526001600160a01b0384166004820152602401610372565b505050565b6040516323b872dd60e01b60008181526001600160a01b038781166004528616602452604485905291602083606481808c5af192506001600051148316611ada578383151615611acd573d6000823e3d81fd5b6000883b113d1516831692505b60405250600060605295945050505050565b600080516020611f2883398151915254600203611b1c57604051633ee5aeb560e01b815260040160405180910390fd5b565b60405163a9059cbb60e01b60008181526001600160a01b038616600452602485905291602083604481808b5af192506001600051148316611b78578383151615611b6b573d6000823e3d81fd5b6000873b113d1516831692505b60405250949350505050565b5080546000825590600052602060002090810190611ba29190611ba5565b50565b5b80821115611bba5760008155600101611ba6565b5090565b80356001600160a01b0381168114611bd557600080fd5b919050565b600080600060608486031215611bef57600080fd5b83359250611bff60208501611bbe565b9150604084013590509250925092565b60008060408385031215611c2257600080fd5b82359150611c3260208401611bbe565b90509250929050565b60008060408385031215611c4e57600080fd5b82359150602083013567ffffffffffffffff811115611c6c57600080fd5b830160e08186031215611c7e57600080fd5b809150509250929050565b600060208284031215611c9b57600080fd5b5035919050565b60008151808452602080850194506020840160005b83811015611cdc5781516001600160a01b031687529582019590820190600101611cb7565b509495945050505050565b602081528151602082015260208201516040820152604082015160608201526000606083015160e06080840152611d22610100840182611ca2565b90506080840151601f198483030160a0850152611d3f8282611ca2565b91505060a084015160c084015260c084015160e08401528091505092915050565b60008060008060808587031215611d7657600080fd5b84359350611d8660208601611bbe565b925060408501359150611d9b60608601611bbe565b905092959194509250565b600060208284031215611db857600080fd5b611dc182611bbe565b9392505050565b60208082526018908201527f4167656e745661756c743a207661756c74202165786973740000000000000000604082015260600190565b60208082526017908201527f4167656e745661756c743a207a65726f20616d6f756e74000000000000000000604082015260600190565b634e487b7160e01b600052601160045260246000fd5b80820180821115611e5f57611e5f611e36565b92915050565b81810381811115611e5f57611e5f611e36565b60208082526015908201527420b3b2b73a2b30bab63a1d103737ba1037bbb732b960591b604082015260600190565b634e487b7160e01b600052603260045260246000fd5b6000808335601e19843603018112611ed457600080fd5b83018035915067ffffffffffffffff821115611eef57600080fd5b6020019150600581901b3603821315611f0757600080fd5b9250929050565b600060018201611f2057611f20611e36565b506001019056fe9b779b17422d0df92223018b32b4d1fa46e071723d6817e2486d003becc55f00a264697066735822122062e38340d68e4518997594f8e371edfb929b08d3610f5b40be900fae9fbf7fe964736f6c63430008180033","opcodes":"PUSH1 0x80 PUSH1 0x40 MSTORE CALLVALUE DUP1 ISZERO PUSH2 0x10 JUMPI PUSH1 0x0 DUP1 REVERT JUMPDEST POP PUSH1 0x1 PUSH32 0x9B779B17422D0DF92223018B32B4D1FA46E071723D6817E2486D003BECC55F00 SSTORE PUSH2 0x1F7D DUP1 PUSH2 0x44 PUSH1 0x0 CODECOPY PUSH1 0x0 RETURN INVALID PUSH1 0x80 PUSH1 0x40 MSTORE PUSH1 0x4 CALLDATASIZE LT PUSH2 0xDD JUMPI PUSH1 0x0 CALLDATALOAD PUSH1 0xE0 SHR DUP1 PUSH4 0x8F7DAF0F GT PUSH2 0x7F JUMPI DUP1 PUSH4 0xB4BD6F46 GT PUSH2 0x59 JUMPI DUP1 PUSH4 0xB4BD6F46 EQ PUSH2 0x2C9 JUMPI DUP1 PUSH4 0xB6B55F25 EQ PUSH2 0x2E9 JUMPI DUP1 PUSH4 0xBA7550D4 EQ PUSH2 0x2FC JUMPI DUP1 PUSH4 0xE63697C8 EQ PUSH2 0x31C JUMPI PUSH1 0x0 DUP1 REVERT JUMPDEST DUP1 PUSH4 0x8F7DAF0F EQ PUSH2 0x24F JUMPI DUP1 PUSH4 0xA6CFB522 EQ PUSH2 0x27C JUMPI DUP1 PUSH4 0xB2A8D1DF EQ PUSH2 0x2A9 JUMPI PUSH1 0x0 DUP1 REVERT JUMPDEST DUP1 PUSH4 0x661D49B0 GT PUSH2 0xBB JUMPI DUP1 PUSH4 0x661D49B0 EQ PUSH2 0x162 JUMPI DUP1 PUSH4 0x694D1261 EQ PUSH2 0x19A JUMPI DUP1 PUSH4 0x86878927 EQ PUSH2 0x1BA JUMPI DUP1 PUSH4 0x8C64EA4A EQ PUSH2 0x1DA JUMPI PUSH1 0x0 DUP1 REVERT JUMPDEST DUP1 PUSH4 0xA9306D7 EQ PUSH2 0xE2 JUMPI DUP1 PUSH4 0x12AC1763 EQ PUSH2 0x104 JUMPI DUP1 PUSH4 0x2EAFE18C EQ PUSH2 0x12D JUMPI JUMPDEST PUSH1 0x0 DUP1 REVERT JUMPDEST CALLVALUE DUP1 ISZERO PUSH2 0xEE JUMPI PUSH1 0x0 DUP1 REVERT JUMPDEST POP PUSH2 0x102 PUSH2 0xFD CALLDATASIZE PUSH1 0x4 PUSH2 0x1BDA JUMP JUMPDEST PUSH2 0x33C JUMP JUMPDEST STOP JUMPDEST CALLVALUE DUP1 ISZERO PUSH2 0x110 JUMPI PUSH1 0x0 DUP1 REVERT JUMPDEST POP PUSH2 0x11A PUSH1 0x0 SLOAD DUP2 JUMP JUMPDEST PUSH1 0x40 MLOAD SWAP1 DUP2 MSTORE PUSH1 0x20 ADD JUMPDEST PUSH1 0x40 MLOAD DUP1 SWAP2 SUB SWAP1 RETURN JUMPDEST CALLVALUE DUP1 ISZERO PUSH2 0x139 JUMPI PUSH1 0x0 DUP1 REVERT JUMPDEST POP PUSH2 0x14D PUSH2 0x148 CALLDATASIZE PUSH1 0x4 PUSH2 0x1C0F JUMP JUMPDEST PUSH2 0x483 JUMP JUMPDEST PUSH1 0x40 DUP1 MLOAD SWAP3 DUP4 MSTORE PUSH1 0x20 DUP4 ADD SWAP2 SWAP1 SWAP2 MSTORE ADD PUSH2 0x124 JUMP JUMPDEST CALLVALUE DUP1 ISZERO PUSH2 0x16E JUMPI PUSH1 0x0 DUP1 REVERT JUMPDEST POP PUSH2 0x11A PUSH2 0x17D CALLDATASIZE PUSH1 0x4 PUSH2 0x1C0F JUMP JUMPDEST PUSH1 0x3 PUSH1 0x20 SWAP1 DUP2 MSTORE PUSH1 0x0 SWAP3 DUP4 MSTORE PUSH1 0x40 DUP1 DUP5 KECCAK256 SWAP1 SWAP2 MSTORE SWAP1 DUP3 MSTORE SWAP1 KECCAK256 SLOAD DUP2 JUMP JUMPDEST CALLVALUE DUP1 ISZERO PUSH2 0x1A6 JUMPI PUSH1 0x0 DUP1 REVERT JUMPDEST POP PUSH2 0x102 PUSH2 0x1B5 CALLDATASIZE PUSH1 0x4 PUSH2 0x1C3B JUMP JUMPDEST PUSH2 0x558 JUMP JUMPDEST CALLVALUE DUP1 ISZERO PUSH2 0x1C6 JUMPI PUSH1 0x0 DUP1 REVERT JUMPDEST POP PUSH2 0x102 PUSH2 0x1D5 CALLDATASIZE PUSH1 0x4 PUSH2 0x1C0F JUMP JUMPDEST PUSH2 0x906 JUMP JUMPDEST CALLVALUE DUP1 ISZERO PUSH2 0x1E6 JUMPI PUSH1 0x0 DUP1 REVERT JUMPDEST POP PUSH2 0x227 PUSH2 0x1F5 CALLDATASIZE PUSH1 0x4 PUSH2 0x1C89 JUMP JUMPDEST PUSH1 0x1 PUSH1 0x20 DUP2 SWAP1 MSTORE PUSH1 0x0 SWAP2 DUP3 MSTORE PUSH1 0x40 SWAP1 SWAP2 KECCAK256 DUP1 SLOAD SWAP2 ADD SLOAD PUSH1 0x1 PUSH1 0x1 PUSH1 0xA0 SHL SUB SWAP2 DUP3 AND SWAP2 DUP2 AND SWAP1 PUSH1 0x1 PUSH1 0xA0 SHL SWAP1 DIV PUSH1 0xFF AND DUP4 JUMP JUMPDEST PUSH1 0x40 DUP1 MLOAD PUSH1 0x1 PUSH1 0x1 PUSH1 0xA0 SHL SUB SWAP5 DUP6 AND DUP2 MSTORE SWAP4 SWAP1 SWAP3 AND PUSH1 0x20 DUP5 ADD MSTORE ISZERO ISZERO SWAP1 DUP3 ADD MSTORE PUSH1 0x60 ADD PUSH2 0x124 JUMP JUMPDEST CALLVALUE DUP1 ISZERO PUSH2 0x25B JUMPI PUSH1 0x0 DUP1 REVERT JUMPDEST POP PUSH2 0x26F PUSH2 0x26A CALLDATASIZE PUSH1 0x4 PUSH2 0x1C89 JUMP JUMPDEST PUSH2 0xA28 JUMP JUMPDEST PUSH1 0x40 MLOAD PUSH2 0x124 SWAP2 SWAP1 PUSH2 0x1CE7 JUMP JUMPDEST CALLVALUE DUP1 ISZERO PUSH2 0x288 JUMPI PUSH1 0x0 DUP1 REVERT JUMPDEST POP PUSH2 0x11A PUSH2 0x297 CALLDATASIZE PUSH1 0x4 PUSH2 0x1C89 JUMP JUMPDEST PUSH1 0x2 PUSH1 0x20 MSTORE PUSH1 0x0 SWAP1 DUP2 MSTORE PUSH1 0x40 SWAP1 KECCAK256 SLOAD DUP2 JUMP JUMPDEST CALLVALUE DUP1 ISZERO PUSH2 0x2B5 JUMPI PUSH1 0x0 DUP1 REVERT JUMPDEST POP PUSH2 0x102 PUSH2 0x2C4 CALLDATASIZE PUSH1 0x4 PUSH2 0x1D60 JUMP JUMPDEST PUSH2 0xB8B JUMP JUMPDEST CALLVALUE DUP1 ISZERO PUSH2 0x2D5 JUMPI PUSH1 0x0 DUP1 REVERT JUMPDEST POP PUSH2 0x11A PUSH2 0x2E4 CALLDATASIZE PUSH1 0x4 PUSH2 0x1DA6 JUMP JUMPDEST PUSH2 0xF84 JUMP JUMPDEST PUSH2 0x102 PUSH2 0x2F7 CALLDATASIZE PUSH1 0x4 PUSH2 0x1C89 JUMP JUMPDEST PUSH2 0x1090 JUMP JUMPDEST CALLVALUE DUP1 ISZERO PUSH2 0x308 JUMPI PUSH1 0x0 DUP1 REVERT JUMPDEST POP PUSH2 0x102 PUSH2 0x317 CALLDATASIZE PUSH1 0x4 PUSH2 0x1C89 JUMP JUMPDEST PUSH2 0x1175 JUMP JUMPDEST CALLVALUE DUP1 ISZERO PUSH2 0x328 JUMPI PUSH1 0x0 DUP1 REVERT JUMPDEST POP PUSH2 0x102 PUSH2 0x337 CALLDATASIZE PUSH1 0x4 PUSH2 0x1BDA JUMP JUMPDEST PUSH2 0x12A6 JUMP JUMPDEST PUSH1 0x0 DUP4 DUP2 MSTORE PUSH1 0x1 PUSH1 0x20 MSTORE PUSH1 0x40 SWAP1 KECCAK256 SLOAD DUP4 SWAP1 PUSH1 0x1 PUSH1 0x1 PUSH1 0xA0 SHL SUB AND PUSH2 0x37B JUMPI PUSH1 0x40 MLOAD PUSH3 0x461BCD PUSH1 0xE5 SHL DUP2 MSTORE PUSH1 0x4 ADD PUSH2 0x372 SWAP1 PUSH2 0x1DC8 JUMP JUMPDEST PUSH1 0x40 MLOAD DUP1 SWAP2 SUB SWAP1 REVERT JUMPDEST PUSH1 0x1 PUSH1 0x1 PUSH1 0xA0 SHL SUB DUP4 AND PUSH2 0x3D1 JUMPI PUSH1 0x40 MLOAD PUSH3 0x461BCD PUSH1 0xE5 SHL DUP2 MSTORE PUSH1 0x20 PUSH1 0x4 DUP3 ADD MSTORE PUSH1 0x19 PUSH1 0x24 DUP3 ADD MSTORE PUSH32 0x4167656E745661756C743A20757365206465706F736974282900000000000000 PUSH1 0x44 DUP3 ADD MSTORE PUSH1 0x64 ADD PUSH2 0x372 JUMP JUMPDEST PUSH1 0x0 DUP3 GT PUSH2 0x3F1 JUMPI PUSH1 0x40 MLOAD PUSH3 0x461BCD PUSH1 0xE5 SHL DUP2 MSTORE PUSH1 0x4 ADD PUSH2 0x372 SWAP1 PUSH2 0x1DFF JUMP JUMPDEST PUSH2 0x406 PUSH1 0x1 PUSH1 0x1 PUSH1 0xA0 SHL SUB DUP5 AND CALLER ADDRESS DUP6 PUSH2 0x1589 JUMP JUMPDEST PUSH1 0x0 DUP5 DUP2 MSTORE PUSH1 0x3 PUSH1 0x20 SWAP1 DUP2 MSTORE PUSH1 0x40 DUP1 DUP4 KECCAK256 PUSH1 0x1 PUSH1 0x1 PUSH1 0xA0 SHL SUB DUP8 AND DUP5 MSTORE SWAP1 SWAP2 MSTORE DUP2 KECCAK256 DUP1 SLOAD DUP5 SWAP3 SWAP1 PUSH2 0x438 SWAP1 DUP5 SWAP1 PUSH2 0x1E4C JUMP JUMPDEST SWAP1 SWAP2 SSTORE POP POP PUSH1 0x40 MLOAD DUP3 DUP2 MSTORE PUSH1 0x1 PUSH1 0x1 PUSH1 0xA0 SHL SUB DUP5 AND SWAP1 DUP6 SWAP1 PUSH32 0x1599C0FCF897AF5BABC2BFCF707F5DC050F841B044D97C3251ECEC35B9ABF80B SWAP1 PUSH1 0x20 ADD PUSH1 0x40 MLOAD DUP1 SWAP2 SUB SWAP1 LOG3 POP POP POP POP JUMP JUMPDEST PUSH1 0x0 DUP3 DUP2 MSTORE PUSH1 0x4 PUSH1 0x20 SWAP1 DUP2 MSTORE PUSH1 0x40 DUP1 DUP4 KECCAK256 PUSH1 0x9 DUP4 MSTORE DUP2 DUP5 KECCAK256 PUSH1 0x1 PUSH1 0x1 PUSH1 0xA0 SHL SUB DUP7 AND DUP6 MSTORE SWAP1 SWAP3 MSTORE DUP3 KECCAK256 PUSH1 0x1 DUP2 ADD SLOAD DUP4 SWAP3 SWAP2 SWAP1 DUP4 SWAP1 TIMESTAMP LT PUSH2 0x4C4 JUMPI PUSH1 0x0 PUSH2 0x4C7 JUMP JUMPDEST DUP2 SLOAD JUMPDEST SWAP1 POP DUP1 DUP4 PUSH1 0x1 ADD SLOAD GT PUSH2 0x4DB JUMPI PUSH1 0x0 PUSH2 0x4EB JUMP JUMPDEST DUP1 DUP4 PUSH1 0x1 ADD SLOAD PUSH2 0x4EB SWAP2 SWAP1 PUSH2 0x1E65 JUMP JUMPDEST PUSH1 0x0 DUP9 DUP2 MSTORE PUSH1 0xA PUSH1 0x20 SWAP1 DUP2 MSTORE PUSH1 0x40 DUP1 DUP4 KECCAK256 PUSH1 0x1 PUSH1 0x1 PUSH1 0xA0 SHL SUB DUP12 AND DUP5 MSTORE SWAP1 SWAP2 MSTORE DUP2 KECCAK256 PUSH1 0x1 DUP2 ADD SLOAD SWAP3 SWAP8 POP SWAP2 TIMESTAMP LT PUSH2 0x523 JUMPI PUSH1 0x0 PUSH2 0x526 JUMP JUMPDEST DUP2 SLOAD JUMPDEST SWAP1 POP DUP1 DUP6 PUSH1 0x2 ADD SLOAD GT PUSH2 0x53A JUMPI PUSH1 0x0 PUSH2 0x54A JUMP JUMPDEST DUP1 DUP6 PUSH1 0x2 ADD SLOAD PUSH2 0x54A SWAP2 SWAP1 PUSH2 0x1E65 JUMP JUMPDEST SWAP6 POP POP POP POP POP POP SWAP3 POP SWAP3 SWAP1 POP JUMP JUMPDEST PUSH1 0x0 DUP3 DUP2 MSTORE PUSH1 0x1 PUSH1 0x20 MSTORE PUSH1 0x40 SWAP1 KECCAK256 SLOAD DUP3 SWAP1 PUSH1 0x1 PUSH1 0x1 PUSH1 0xA0 SHL SUB AND PUSH2 0x58E JUMPI PUSH1 0x40 MLOAD PUSH3 0x461BCD PUSH1 0xE5 SHL DUP2 MSTORE PUSH1 0x4 ADD PUSH2 0x372 SWAP1 PUSH2 0x1DC8 JUMP JUMPDEST PUSH1 0x0 DUP4 DUP2 MSTORE PUSH1 0x1 PUSH1 0x20 MSTORE PUSH1 0x40 SWAP1 KECCAK256 SLOAD DUP4 SWAP1 PUSH1 0x1 PUSH1 0x1 PUSH1 0xA0 SHL SUB AND CALLER EQ PUSH2 0x5C6 JUMPI PUSH1 0x40 MLOAD PUSH3 0x461BCD PUSH1 0xE5 SHL DUP2 MSTORE PUSH1 0x4 ADD PUSH2 0x372 SWAP1 PUSH2 0x1E78 JUMP JUMPDEST PUSH1 0x40 DUP1 MLOAD PUSH1 0xA0 DUP1 DUP3 ADD DUP4 MSTORE DUP6 CALLDATALOAD DUP3 MSTORE PUSH1 0x20 DUP1 DUP8 ADD CALLDATALOAD DUP2 DUP5 ADD SWAP1 DUP2 MSTORE DUP8 DUP6 ADD CALLDATALOAD DUP5 DUP7 ADD SWAP1 DUP2 MSTORE SWAP3 DUP9 ADD CALLDATALOAD PUSH1 0x60 DUP6 ADD SWAP1 DUP2 MSTORE PUSH1 0xC0 DUP10 ADD CALLDATALOAD PUSH1 0x80 DUP7 ADD SWAP1 DUP2 MSTORE PUSH1 0x0 DUP12 DUP2 MSTORE PUSH1 0x4 DUP1 DUP7 MSTORE DUP9 DUP3 KECCAK256 SWAP8 MLOAD DUP9 SSTORE SWAP4 MLOAD PUSH1 0x1 DUP9 ADD SSTORE SWAP5 MLOAD PUSH1 0x2 DUP8 ADD SSTORE SWAP1 MLOAD PUSH1 0x3 DUP7 ADD SSTORE MLOAD SWAP4 ADD SWAP3 SWAP1 SWAP3 SSTORE PUSH1 0x5 SWAP1 SWAP2 MSTORE SWAP1 DUP2 KECCAK256 SWAP1 JUMPDEST DUP2 SLOAD DUP2 LT ISZERO PUSH2 0x6A2 JUMPI PUSH1 0x0 DUP7 DUP2 MSTORE PUSH1 0x7 PUSH1 0x20 MSTORE PUSH1 0x40 DUP2 KECCAK256 DUP4 SLOAD DUP3 SWAP1 DUP6 SWAP1 DUP6 SWAP1 DUP2 LT PUSH2 0x666 JUMPI PUSH2 0x666 PUSH2 0x1EA7 JUMP JUMPDEST PUSH1 0x0 SWAP2 DUP3 MSTORE PUSH1 0x20 DUP1 DUP4 KECCAK256 SWAP2 SWAP1 SWAP2 ADD SLOAD PUSH1 0x1 PUSH1 0x1 PUSH1 0xA0 SHL SUB AND DUP4 MSTORE DUP3 ADD SWAP3 SWAP1 SWAP3 MSTORE PUSH1 0x40 ADD SWAP1 KECCAK256 DUP1 SLOAD PUSH1 0xFF NOT AND SWAP2 ISZERO ISZERO SWAP2 SWAP1 SWAP2 OR SWAP1 SSTORE PUSH1 0x1 ADD PUSH2 0x639 JUMP JUMPDEST POP PUSH1 0x0 DUP6 DUP2 MSTORE PUSH1 0x5 PUSH1 0x20 MSTORE PUSH1 0x40 DUP2 KECCAK256 PUSH2 0x6BA SWAP2 PUSH2 0x1B84 JUMP JUMPDEST PUSH1 0x0 JUMPDEST PUSH2 0x6CA PUSH1 0x60 DUP7 ADD DUP7 PUSH2 0x1EBD JUMP JUMPDEST SWAP1 POP DUP2 LT ISZERO PUSH2 0x76D JUMPI PUSH1 0x0 PUSH2 0x6E2 PUSH1 0x60 DUP8 ADD DUP8 PUSH2 0x1EBD JUMP JUMPDEST DUP4 DUP2 DUP2 LT PUSH2 0x6F2 JUMPI PUSH2 0x6F2 PUSH2 0x1EA7 JUMP JUMPDEST SWAP1 POP PUSH1 0x20 MUL ADD PUSH1 0x20 DUP2 ADD SWAP1 PUSH2 0x707 SWAP2 SWAP1 PUSH2 0x1DA6 JUMP JUMPDEST PUSH1 0x0 DUP9 DUP2 MSTORE PUSH1 0x5 PUSH1 0x20 SWAP1 DUP2 MSTORE PUSH1 0x40 DUP1 DUP4 KECCAK256 DUP1 SLOAD PUSH1 0x1 DUP2 DUP2 ADD DUP4 SSTORE SWAP2 DUP6 MSTORE DUP4 DUP6 KECCAK256 ADD DUP1 SLOAD PUSH1 0x1 PUSH1 0x1 PUSH1 0xA0 SHL SUB SWAP1 SWAP7 AND PUSH1 0x1 PUSH1 0x1 PUSH1 0xA0 SHL SUB NOT SWAP1 SWAP7 AND DUP7 OR SWAP1 SSTORE DUP12 DUP5 MSTORE PUSH1 0x7 DUP4 MSTORE DUP2 DUP5 KECCAK256 SWAP5 DUP5 MSTORE SWAP4 SWAP1 SWAP2 MSTORE SWAP1 KECCAK256 DUP1 SLOAD PUSH1 0xFF NOT AND DUP3 OR SWAP1 SSTORE SWAP2 SWAP1 SWAP2 ADD SWAP1 POP PUSH2 0x6BD JUMP JUMPDEST POP PUSH1 0x0 DUP6 DUP2 MSTORE PUSH1 0x6 PUSH1 0x20 MSTORE PUSH1 0x40 DUP2 KECCAK256 SWAP1 JUMPDEST DUP2 SLOAD DUP2 LT ISZERO PUSH2 0x7E7 JUMPI PUSH1 0x0 DUP8 DUP2 MSTORE PUSH1 0x8 PUSH1 0x20 MSTORE PUSH1 0x40 DUP2 KECCAK256 DUP4 SLOAD DUP3 SWAP1 DUP6 SWAP1 DUP6 SWAP1 DUP2 LT PUSH2 0x7AB JUMPI PUSH2 0x7AB PUSH2 0x1EA7 JUMP JUMPDEST PUSH1 0x0 SWAP2 DUP3 MSTORE PUSH1 0x20 DUP1 DUP4 KECCAK256 SWAP2 SWAP1 SWAP2 ADD SLOAD PUSH1 0x1 PUSH1 0x1 PUSH1 0xA0 SHL SUB AND DUP4 MSTORE DUP3 ADD SWAP3 SWAP1 SWAP3 MSTORE PUSH1 0x40 ADD SWAP1 KECCAK256 DUP1 SLOAD PUSH1 0xFF NOT AND SWAP2 ISZERO ISZERO SWAP2 SWAP1 SWAP2 OR SWAP1 SSTORE PUSH1 0x1 ADD PUSH2 0x77E JUMP JUMPDEST POP PUSH1 0x0 DUP7 DUP2 MSTORE PUSH1 0x6 PUSH1 0x20 MSTORE PUSH1 0x40 DUP2 KECCAK256 PUSH2 0x7FF SWAP2 PUSH2 0x1B84 JUMP JUMPDEST PUSH1 0x0 JUMPDEST PUSH2 0x80F PUSH1 0x80 DUP8 ADD DUP8 PUSH2 0x1EBD JUMP JUMPDEST SWAP1 POP DUP2 LT ISZERO PUSH2 0x8B2 JUMPI PUSH1 0x0 PUSH2 0x827 PUSH1 0x80 DUP9 ADD DUP9 PUSH2 0x1EBD JUMP JUMPDEST DUP4 DUP2 DUP2 LT PUSH2 0x837 JUMPI PUSH2 0x837 PUSH2 0x1EA7 JUMP JUMPDEST SWAP1 POP PUSH1 0x20 MUL ADD PUSH1 0x20 DUP2 ADD SWAP1 PUSH2 0x84C SWAP2 SWAP1 PUSH2 0x1DA6 JUMP JUMPDEST PUSH1 0x0 DUP10 DUP2 MSTORE PUSH1 0x6 PUSH1 0x20 SWAP1 DUP2 MSTORE PUSH1 0x40 DUP1 DUP4 KECCAK256 DUP1 SLOAD PUSH1 0x1 DUP2 DUP2 ADD DUP4 SSTORE SWAP2 DUP6 MSTORE DUP4 DUP6 KECCAK256 ADD DUP1 SLOAD PUSH1 0x1 PUSH1 0x1 PUSH1 0xA0 SHL SUB SWAP1 SWAP7 AND PUSH1 0x1 PUSH1 0x1 PUSH1 0xA0 SHL SUB NOT SWAP1 SWAP7 AND DUP7 OR SWAP1 SSTORE DUP13 DUP5 MSTORE PUSH1 0x8 DUP4 MSTORE DUP2 DUP5 KECCAK256 SWAP5 DUP5 MSTORE SWAP4 SWAP1 SWAP2 MSTORE SWAP1 KECCAK256 DUP1 SLOAD PUSH1 0xFF NOT AND DUP3 OR SWAP1 SSTORE SWAP2 SWAP1 SWAP2 ADD SWAP1 POP PUSH2 0x802 JUMP JUMPDEST POP PUSH1 0x0 DUP7 DUP2 MSTORE PUSH1 0x1 PUSH1 0x20 DUP2 SWAP1 MSTORE PUSH1 0x40 DUP1 DUP4 KECCAK256 SWAP1 SWAP2 ADD DUP1 SLOAD PUSH1 0xFF PUSH1 0xA0 SHL NOT AND PUSH1 0x1 PUSH1 0xA0 SHL OR SWAP1 SSTORE MLOAD DUP8 SWAP2 PUSH32 0x76AC82770C6B88897D65914F6084FEF1DBE925BFA94E3BEF1791CA2B6D17AEB5 SWAP2 LOG2 POP POP POP POP POP POP JUMP JUMPDEST PUSH1 0x0 DUP3 DUP2 MSTORE PUSH1 0x1 PUSH1 0x20 MSTORE PUSH1 0x40 SWAP1 KECCAK256 SLOAD DUP3 SWAP1 PUSH1 0x1 PUSH1 0x1 PUSH1 0xA0 SHL SUB AND PUSH2 0x93C JUMPI PUSH1 0x40 MLOAD PUSH3 0x461BCD PUSH1 0xE5 SHL DUP2 MSTORE PUSH1 0x4 ADD PUSH2 0x372 SWAP1 PUSH2 0x1DC8 JUMP JUMPDEST PUSH1 0x0 DUP4 DUP2 MSTORE PUSH1 0x1 PUSH1 0x20 MSTORE PUSH1 0x40 SWAP1 KECCAK256 SLOAD DUP4 SWAP1 PUSH1 0x1 PUSH1 0x1 PUSH1 0xA0 SHL SUB AND CALLER EQ PUSH2 0x974 JUMPI PUSH1 0x40 MLOAD PUSH3 0x461BCD PUSH1 0xE5 SHL DUP2 MSTORE PUSH1 0x4 ADD PUSH2 0x372 SWAP1 PUSH2 0x1E78 JUMP JUMPDEST PUSH1 0x1 PUSH1 0x1 PUSH1 0xA0 SHL SUB DUP4 AND PUSH2 0x9C3 JUMPI PUSH1 0x40 MLOAD PUSH3 0x461BCD PUSH1 0xE5 SHL DUP2 MSTORE PUSH1 0x20 PUSH1 0x4 DUP3 ADD MSTORE PUSH1 0x16 PUSH1 0x24 DUP3 ADD MSTORE PUSH22 0x1059D95B9D15985D5B1D0E881E995C9BC81859D95B9D PUSH1 0x52 SHL PUSH1 0x44 DUP3 ADD MSTORE PUSH1 0x64 ADD PUSH2 0x372 JUMP JUMPDEST PUSH1 0x0 DUP5 DUP2 MSTORE PUSH1 0x1 PUSH1 0x20 DUP2 SWAP1 MSTORE PUSH1 0x40 DUP1 DUP4 KECCAK256 SWAP1 SWAP2 ADD DUP1 SLOAD PUSH1 0x1 PUSH1 0x1 PUSH1 0xA0 SHL SUB NOT DUP2 AND PUSH1 0x1 PUSH1 0x1 PUSH1 0xA0 SHL SUB DUP9 DUP2 AND SWAP2 DUP3 OR SWAP1 SWAP4 SSTORE SWAP3 MLOAD SWAP2 AND SWAP3 DUP4 SWAP2 DUP9 SWAP2 PUSH32 0xDDEBE0203A5CB884D0E59D3C9B1500E3BFDD48633102167EB495F8D80C3BC7EE SWAP2 LOG4 POP POP POP POP POP JUMP JUMPDEST PUSH2 0xA68 PUSH1 0x40 MLOAD DUP1 PUSH1 0xE0 ADD PUSH1 0x40 MSTORE DUP1 PUSH1 0x0 DUP2 MSTORE PUSH1 0x20 ADD PUSH1 0x0 DUP2 MSTORE PUSH1 0x20 ADD PUSH1 0x0 DUP2 MSTORE PUSH1 0x20 ADD PUSH1 0x60 DUP2 MSTORE PUSH1 0x20 ADD PUSH1 0x60 DUP2 MSTORE PUSH1 0x20 ADD PUSH1 0x0 DUP2 MSTORE PUSH1 0x20 ADD PUSH1 0x0 DUP2 MSTORE POP SWAP1 JUMP JUMPDEST PUSH1 0x0 DUP3 DUP2 MSTORE PUSH1 0x4 PUSH1 0x20 SWAP1 DUP2 MSTORE PUSH1 0x40 DUP1 DUP4 KECCAK256 DUP2 MLOAD PUSH1 0xE0 DUP2 ADD DUP4 MSTORE DUP2 SLOAD DUP2 MSTORE PUSH1 0x1 DUP3 ADD SLOAD DUP2 DUP6 ADD MSTORE PUSH1 0x2 DUP3 ADD SLOAD DUP2 DUP5 ADD MSTORE DUP7 DUP6 MSTORE PUSH1 0x5 DUP5 MSTORE SWAP4 DUP3 SWAP1 KECCAK256 DUP1 SLOAD DUP4 MLOAD DUP2 DUP7 MUL DUP2 ADD DUP7 ADD SWAP1 SWAP5 MSTORE DUP1 DUP5 MSTORE SWAP2 SWAP5 SWAP4 PUSH1 0x60 DUP6 ADD SWAP4 SWAP3 SWAP1 DUP4 ADD DUP3 DUP3 DUP1 ISZERO PUSH2 0xAF6 JUMPI PUSH1 0x20 MUL DUP3 ADD SWAP2 SWAP1 PUSH1 0x0 MSTORE PUSH1 0x20 PUSH1 0x0 KECCAK256 SWAP1 JUMPDEST DUP2 SLOAD PUSH1 0x1 PUSH1 0x1 PUSH1 0xA0 SHL SUB AND DUP2 MSTORE PUSH1 0x1 SWAP1 SWAP2 ADD SWAP1 PUSH1 0x20 ADD DUP1 DUP4 GT PUSH2 0xAD8 JUMPI JUMPDEST POP POP POP POP POP DUP2 MSTORE PUSH1 0x20 ADD PUSH1 0x6 PUSH1 0x0 DUP7 DUP2 MSTORE PUSH1 0x20 ADD SWAP1 DUP2 MSTORE PUSH1 0x20 ADD PUSH1 0x0 KECCAK256 DUP1 SLOAD DUP1 PUSH1 0x20 MUL PUSH1 0x20 ADD PUSH1 0x40 MLOAD SWAP1 DUP2 ADD PUSH1 0x40 MSTORE DUP1 SWAP3 SWAP2 SWAP1 DUP2 DUP2 MSTORE PUSH1 0x20 ADD DUP3 DUP1 SLOAD DUP1 ISZERO PUSH2 0xB67 JUMPI PUSH1 0x20 MUL DUP3 ADD SWAP2 SWAP1 PUSH1 0x0 MSTORE PUSH1 0x20 PUSH1 0x0 KECCAK256 SWAP1 JUMPDEST DUP2 SLOAD PUSH1 0x1 PUSH1 0x1 PUSH1 0xA0 SHL SUB AND DUP2 MSTORE PUSH1 0x1 SWAP1 SWAP2 ADD SWAP1 PUSH1 0x20 ADD DUP1 DUP4 GT PUSH2 0xB49 JUMPI JUMPDEST POP POP POP POP POP DUP2 MSTORE PUSH1 0x20 ADD DUP3 PUSH1 0x3 ADD SLOAD DUP2 MSTORE PUSH1 0x20 ADD DUP3 PUSH1 0x4 ADD SLOAD DUP2 MSTORE POP SWAP2 POP POP SWAP2 SWAP1 POP JUMP JUMPDEST PUSH1 0x0 DUP5 DUP2 MSTORE PUSH1 0x1 PUSH1 0x20 MSTORE PUSH1 0x40 SWAP1 KECCAK256 SLOAD DUP5 SWAP1 PUSH1 0x1 PUSH1 0x1 PUSH1 0xA0 SHL SUB AND PUSH2 0xBC1 JUMPI PUSH1 0x40 MLOAD PUSH3 0x461BCD PUSH1 0xE5 SHL DUP2 MSTORE PUSH1 0x4 ADD PUSH2 0x372 SWAP1 PUSH2 0x1DC8 JUMP JUMPDEST PUSH1 0x0 DUP6 DUP2 MSTORE PUSH1 0x1 PUSH1 0x20 DUP2 SWAP1 MSTORE PUSH1 0x40 SWAP1 SWAP2 KECCAK256 ADD SLOAD DUP6 SWAP1 PUSH1 0x1 PUSH1 0x1 PUSH1 0xA0 SHL SUB AND CALLER EQ PUSH2 0xC25 JUMPI PUSH1 0x40 MLOAD PUSH3 0x461BCD PUSH1 0xE5 SHL DUP2 MSTORE PUSH1 0x20 PUSH1 0x4 DUP3 ADD MSTORE PUSH1 0x15 PUSH1 0x24 DUP3 ADD MSTORE PUSH21 0x1059D95B9D15985D5B1D0E881B9BDD081859D95B9D PUSH1 0x5A SHL PUSH1 0x44 DUP3 ADD MSTORE PUSH1 0x64 ADD PUSH2 0x372 JUMP JUMPDEST PUSH2 0xC2D PUSH2 0x15C5 JUMP JUMPDEST PUSH1 0x0 DUP5 GT PUSH2 0xC4D JUMPI PUSH1 0x40 MLOAD PUSH3 0x461BCD PUSH1 0xE5 SHL DUP2 MSTORE PUSH1 0x4 ADD PUSH2 0x372 SWAP1 PUSH2 0x1DFF JUMP JUMPDEST PUSH1 0x1 PUSH1 0x1 PUSH1 0xA0 SHL SUB DUP6 AND PUSH2 0xCA3 JUMPI PUSH1 0x40 MLOAD PUSH3 0x461BCD PUSH1 0xE5 SHL DUP2 MSTORE PUSH1 0x20 PUSH1 0x4 DUP3 ADD MSTORE PUSH1 0x1A PUSH1 0x24 DUP3 ADD MSTORE PUSH32 0x4167656E745661756C743A207A65726F20726563697069656E74000000000000 PUSH1 0x44 DUP3 ADD MSTORE PUSH1 0x64 ADD PUSH2 0x372 JUMP JUMPDEST PUSH1 0x0 DUP7 DUP2 MSTORE PUSH1 0x1 PUSH1 0x20 DUP2 SWAP1 MSTORE PUSH1 0x40 SWAP1 SWAP2 KECCAK256 ADD SLOAD PUSH1 0x1 PUSH1 0xA0 SHL SWAP1 DIV PUSH1 0xFF AND PUSH2 0xD0C JUMPI PUSH1 0x40 MLOAD PUSH3 0x461BCD PUSH1 0xE5 SHL DUP2 MSTORE PUSH1 0x20 PUSH1 0x4 DUP3 ADD MSTORE PUSH1 0x19 PUSH1 0x24 DUP3 ADD MSTORE PUSH32 0x4167656E745661756C743A2072756C6573206E6F742073657400000000000000 PUSH1 0x44 DUP3 ADD MSTORE PUSH1 0x64 ADD PUSH2 0x372 JUMP JUMPDEST PUSH2 0xD18 DUP7 DUP7 DUP7 DUP7 PUSH2 0x15E1 JUMP JUMPDEST PUSH2 0xD23 DUP7 DUP5 DUP7 PUSH2 0x1978 JUMP JUMPDEST PUSH1 0x1 PUSH1 0x1 PUSH1 0xA0 SHL SUB DUP4 AND PUSH2 0xE59 JUMPI PUSH1 0x0 DUP7 DUP2 MSTORE PUSH1 0x2 PUSH1 0x20 MSTORE PUSH1 0x40 SWAP1 KECCAK256 SLOAD DUP5 GT ISZERO PUSH2 0xD8F JUMPI PUSH1 0x40 MLOAD PUSH3 0x461BCD PUSH1 0xE5 SHL DUP2 MSTORE PUSH1 0x20 PUSH1 0x4 DUP3 ADD MSTORE PUSH1 0x1C PUSH1 0x24 DUP3 ADD MSTORE PUSH32 0x4167656E745661756C743A20696E73756666696369656E742045544800000000 PUSH1 0x44 DUP3 ADD MSTORE PUSH1 0x64 ADD PUSH2 0x372 JUMP JUMPDEST PUSH1 0x0 DUP7 DUP2 MSTORE PUSH1 0x2 PUSH1 0x20 MSTORE PUSH1 0x40 DUP2 KECCAK256 DUP1 SLOAD DUP7 SWAP3 SWAP1 PUSH2 0xDAD SWAP1 DUP5 SWAP1 PUSH2 0x1E65 JUMP JUMPDEST SWAP1 SWAP2 SSTORE POP POP PUSH1 0x40 MLOAD PUSH1 0x0 SWAP1 PUSH1 0x1 PUSH1 0x1 PUSH1 0xA0 SHL SUB DUP8 AND SWAP1 DUP7 SWAP1 DUP4 DUP2 DUP2 DUP2 DUP6 DUP8 GAS CALL SWAP3 POP POP POP RETURNDATASIZE DUP1 PUSH1 0x0 DUP2 EQ PUSH2 0xDFD JUMPI PUSH1 0x40 MLOAD SWAP2 POP PUSH1 0x1F NOT PUSH1 0x3F RETURNDATASIZE ADD AND DUP3 ADD PUSH1 0x40 MSTORE RETURNDATASIZE DUP3 MSTORE RETURNDATASIZE PUSH1 0x0 PUSH1 0x20 DUP5 ADD RETURNDATACOPY PUSH2 0xE02 JUMP JUMPDEST PUSH1 0x60 SWAP2 POP JUMPDEST POP POP SWAP1 POP DUP1 PUSH2 0xE53 JUMPI PUSH1 0x40 MLOAD PUSH3 0x461BCD PUSH1 0xE5 SHL DUP2 MSTORE PUSH1 0x20 PUSH1 0x4 DUP3 ADD MSTORE PUSH1 0x1F PUSH1 0x24 DUP3 ADD MSTORE PUSH32 0x4167656E745661756C743A20455448207472616E73666572206661696C656400 PUSH1 0x44 DUP3 ADD MSTORE PUSH1 0x64 ADD PUSH2 0x372 JUMP JUMPDEST POP PUSH2 0xF17 JUMP JUMPDEST PUSH1 0x0 DUP7 DUP2 MSTORE PUSH1 0x3 PUSH1 0x20 SWAP1 DUP2 MSTORE PUSH1 0x40 DUP1 DUP4 KECCAK256 PUSH1 0x1 PUSH1 0x1 PUSH1 0xA0 SHL SUB DUP8 AND DUP5 MSTORE SWAP1 SWAP2 MSTORE SWAP1 KECCAK256 SLOAD DUP5 GT ISZERO PUSH2 0xECB JUMPI PUSH1 0x40 MLOAD PUSH3 0x461BCD PUSH1 0xE5 SHL DUP2 MSTORE PUSH1 0x20 PUSH1 0x4 DUP3 ADD MSTORE PUSH1 0x1E PUSH1 0x24 DUP3 ADD MSTORE PUSH32 0x4167656E745661756C743A20696E73756666696369656E7420746F6B656E0000 PUSH1 0x44 DUP3 ADD MSTORE PUSH1 0x64 ADD PUSH2 0x372 JUMP JUMPDEST PUSH1 0x0 DUP7 DUP2 MSTORE PUSH1 0x3 PUSH1 0x20 SWAP1 DUP2 MSTORE PUSH1 0x40 DUP1 DUP4 KECCAK256 PUSH1 0x1 PUSH1 0x1 PUSH1 0xA0 SHL SUB DUP8 AND DUP5 MSTORE SWAP1 SWAP2 MSTORE DUP2 KECCAK256 DUP1 SLOAD DUP7 SWAP3 SWAP1 PUSH2 0xEFD SWAP1 DUP5 SWAP1 PUSH2 0x1E65 JUMP JUMPDEST SWAP1 SWAP2 SSTORE POP PUSH2 0xF17 SWAP1 POP PUSH1 0x1 PUSH1 0x1 PUSH1 0xA0 SHL SUB DUP5 AND DUP7 DUP7 PUSH2 0x1A40 JUMP JUMPDEST DUP5 PUSH1 0x1 PUSH1 0x1 PUSH1 0xA0 SHL SUB AND DUP4 PUSH1 0x1 PUSH1 0x1 PUSH1 0xA0 SHL SUB AND DUP8 PUSH32 0x5C0321F3E9B9F197C4B7888184F436FCDECAA1AA532F2B11006049A2A5EF8C93 DUP8 PUSH1 0x40 MLOAD PUSH2 0xF5D SWAP2 DUP2 MSTORE PUSH1 0x20 ADD SWAP1 JUMP JUMPDEST PUSH1 0x40 MLOAD DUP1 SWAP2 SUB SWAP1 LOG4 PUSH2 0xF7C PUSH1 0x1 PUSH1 0x0 DUP1 MLOAD PUSH1 0x20 PUSH2 0x1F28 DUP4 CODECOPY DUP2 MLOAD SWAP2 MSTORE SSTORE JUMP JUMPDEST POP POP POP POP POP POP JUMP JUMPDEST PUSH1 0x0 PUSH1 0x1 PUSH1 0x1 PUSH1 0xA0 SHL SUB DUP3 AND PUSH2 0xFD5 JUMPI PUSH1 0x40 MLOAD PUSH3 0x461BCD PUSH1 0xE5 SHL DUP2 MSTORE PUSH1 0x20 PUSH1 0x4 DUP3 ADD MSTORE PUSH1 0x16 PUSH1 0x24 DUP3 ADD MSTORE PUSH22 0x1059D95B9D15985D5B1D0E881E995C9BC81859D95B9D PUSH1 0x52 SHL PUSH1 0x44 DUP3 ADD MSTORE PUSH1 0x64 ADD PUSH2 0x372 JUMP JUMPDEST PUSH1 0x0 DUP1 SLOAD SWAP1 DUP1 PUSH2 0xFE4 DUP4 PUSH2 0x1F0E JUMP JUMPDEST SWAP1 SWAP2 SSTORE POP PUSH1 0x40 DUP1 MLOAD PUSH1 0x60 DUP2 ADD DUP3 MSTORE CALLER DUP1 DUP3 MSTORE PUSH1 0x1 PUSH1 0x1 PUSH1 0xA0 SHL SUB DUP7 DUP2 AND PUSH1 0x20 DUP1 DUP6 ADD DUP3 DUP2 MSTORE PUSH1 0x0 DUP7 DUP9 ADD DUP2 DUP2 MSTORE DUP10 DUP3 MSTORE PUSH1 0x1 SWAP4 DUP5 SWAP1 MSTORE DUP9 DUP3 KECCAK256 SWAP8 MLOAD DUP9 SLOAD PUSH1 0x1 PUSH1 0x1 PUSH1 0xA0 SHL SUB NOT AND SWAP1 DUP8 AND OR DUP9 SSTORE SWAP2 MLOAD SWAP7 SWAP1 SWAP3 ADD DUP1 SLOAD SWAP2 MLOAD SWAP7 SWAP1 SWAP5 AND PUSH1 0x1 PUSH1 0x1 PUSH1 0xA8 SHL SUB NOT SWAP1 SWAP2 AND OR PUSH1 0x1 PUSH1 0xA0 SHL SWAP6 ISZERO ISZERO SWAP6 SWAP1 SWAP6 MUL SWAP5 SWAP1 SWAP5 OR SWAP1 SWAP2 SSTORE SWAP3 MLOAD SWAP4 SWAP5 POP SWAP2 SWAP3 DUP5 SWAP2 PUSH32 0xA8596CC4A052ECC7656E9CA0FB7A10472573699E3AA34AC5659BC37C1B0A44FC SWAP2 LOG4 SWAP2 SWAP1 POP JUMP JUMPDEST PUSH1 0x0 DUP2 DUP2 MSTORE PUSH1 0x1 PUSH1 0x20 MSTORE PUSH1 0x40 SWAP1 KECCAK256 SLOAD DUP2 SWAP1 PUSH1 0x1 PUSH1 0x1 PUSH1 0xA0 SHL SUB AND PUSH2 0x10C6 JUMPI PUSH1 0x40 MLOAD PUSH3 0x461BCD PUSH1 0xE5 SHL DUP2 MSTORE PUSH1 0x4 ADD PUSH2 0x372 SWAP1 PUSH2 0x1DC8 JUMP JUMPDEST PUSH1 0x0 CALLVALUE GT PUSH2 0x1116 JUMPI PUSH1 0x40 MLOAD PUSH3 0x461BCD PUSH1 0xE5 SHL DUP2 MSTORE PUSH1 0x20 PUSH1 0x4 DUP3 ADD MSTORE PUSH1 0x18 PUSH1 0x24 DUP3 ADD MSTORE PUSH32 0x4167656E745661756C743A207A65726F206465706F7369740000000000000000 PUSH1 0x44 DUP3 ADD MSTORE PUSH1 0x64 ADD PUSH2 0x372 JUMP JUMPDEST PUSH1 0x0 DUP3 DUP2 MSTORE PUSH1 0x2 PUSH1 0x20 MSTORE PUSH1 0x40 DUP2 KECCAK256 DUP1 SLOAD CALLVALUE SWAP3 SWAP1 PUSH2 0x1134 SWAP1 DUP5 SWAP1 PUSH2 0x1E4C JUMP JUMPDEST SWAP1 SWAP2 SSTORE POP POP PUSH1 0x40 MLOAD CALLVALUE DUP2 MSTORE PUSH1 0x0 SWAP1 DUP4 SWAP1 PUSH32 0x1599C0FCF897AF5BABC2BFCF707F5DC050F841B044D97C3251ECEC35B9ABF80B SWAP1 PUSH1 0x20 ADD PUSH1 0x40 MLOAD DUP1 SWAP2 SUB SWAP1 LOG3 POP POP JUMP JUMPDEST PUSH1 0x0 DUP2 DUP2 MSTORE PUSH1 0x1 PUSH1 0x20 MSTORE PUSH1 0x40 SWAP1 KECCAK256 SLOAD DUP2 SWAP1 PUSH1 0x1 PUSH1 0x1 PUSH1 0xA0 SHL SUB AND PUSH2 0x11AB JUMPI PUSH1 0x40 MLOAD PUSH3 0x461BCD PUSH1 0xE5 SHL DUP2 MSTORE PUSH1 0x4 ADD PUSH2 0x372 SWAP1 PUSH2 0x1DC8 JUMP JUMPDEST PUSH1 0x0 DUP3 DUP2 MSTORE PUSH1 0x1 PUSH1 0x20 MSTORE PUSH1 0x40 SWAP1 KECCAK256 SLOAD DUP3 SWAP1 PUSH1 0x1 PUSH1 0x1 PUSH1 0xA0 SHL SUB AND CALLER EQ PUSH2 0x11E3 JUMPI PUSH1 0x40 MLOAD PUSH3 0x461BCD PUSH1 0xE5 SHL DUP2 MSTORE PUSH1 0x4 ADD PUSH2 0x372 SWAP1 PUSH2 0x1E78 JUMP JUMPDEST PUSH1 0x0 DUP4 DUP2 MSTORE PUSH1 0x1 PUSH1 0x20 DUP2 SWAP1 MSTORE PUSH1 0x40 SWAP1 SWAP2 KECCAK256 ADD SLOAD PUSH1 0x1 PUSH1 0x1 PUSH1 0xA0 SHL SUB AND DUP1 PUSH2 0x124C JUMPI PUSH1 0x40 MLOAD PUSH3 0x461BCD PUSH1 0xE5 SHL DUP2 MSTORE PUSH1 0x20 PUSH1 0x4 DUP3 ADD MSTORE PUSH1 0x1B PUSH1 0x24 DUP3 ADD MSTORE PUSH32 0x4167656E745661756C743A20616C7265616479207265766F6B65640000000000 PUSH1 0x44 DUP3 ADD MSTORE PUSH1 0x64 ADD PUSH2 0x372 JUMP JUMPDEST PUSH1 0x0 DUP5 DUP2 MSTORE PUSH1 0x1 PUSH1 0x20 DUP2 SWAP1 MSTORE PUSH1 0x40 DUP1 DUP4 KECCAK256 SWAP1 SWAP2 ADD DUP1 SLOAD PUSH1 0x1 PUSH1 0x1 PUSH1 0xA0 SHL SUB NOT AND SWAP1 SSTORE MLOAD PUSH1 0x1 PUSH1 0x1 PUSH1 0xA0 SHL SUB DUP4 AND SWAP2 DUP7 SWAP2 PUSH32 0x1EE8B1FCAD726AAF8B625355CF86F03D512C285181F509BE2A18E0359DDAA9B6 SWAP2 SWAP1 LOG3 POP POP POP POP JUMP JUMPDEST PUSH1 0x0 DUP4 DUP2 MSTORE PUSH1 0x1 PUSH1 0x20 MSTORE PUSH1 0x40 SWAP1 KECCAK256 SLOAD DUP4 SWAP1 PUSH1 0x1 PUSH1 0x1 PUSH1 0xA0 SHL SUB AND PUSH2 0x12DC JUMPI PUSH1 0x40 MLOAD PUSH3 0x461BCD PUSH1 0xE5 SHL DUP2 MSTORE PUSH1 0x4 ADD PUSH2 0x372 SWAP1 PUSH2 0x1DC8 JUMP JUMPDEST PUSH1 0x0 DUP5 DUP2 MSTORE PUSH1 0x1 PUSH1 0x20 MSTORE PUSH1 0x40 SWAP1 KECCAK256 SLOAD DUP5 SWAP1 PUSH1 0x1 PUSH1 0x1 PUSH1 0xA0 SHL SUB AND CALLER EQ PUSH2 0x1314 JUMPI PUSH1 0x40 MLOAD PUSH3 0x461BCD PUSH1 0xE5 SHL DUP2 MSTORE PUSH1 0x4 ADD PUSH2 0x372 SWAP1 PUSH2 0x1E78 JUMP JUMPDEST PUSH2 0x131C PUSH2 0x15C5 JUMP JUMPDEST PUSH1 0x0 DUP4 GT PUSH2 0x133C JUMPI PUSH1 0x40 MLOAD PUSH3 0x461BCD PUSH1 0xE5 SHL DUP2 MSTORE PUSH1 0x4 ADD PUSH2 0x372 SWAP1 PUSH2 0x1DFF JUMP JUMPDEST PUSH1 0x1 PUSH1 0x1 PUSH1 0xA0 SHL SUB DUP5 AND PUSH2 0x1469 JUMPI PUSH1 0x0 DUP6 DUP2 MSTORE PUSH1 0x2 PUSH1 0x20 MSTORE PUSH1 0x40 SWAP1 KECCAK256 SLOAD DUP4 GT ISZERO PUSH2 0x13A8 JUMPI PUSH1 0x40 MLOAD PUSH3 0x461BCD PUSH1 0xE5 SHL DUP2 MSTORE PUSH1 0x20 PUSH1 0x4 DUP3 ADD MSTORE PUSH1 0x1C PUSH1 0x24 DUP3 ADD MSTORE PUSH32 0x4167656E745661756C743A20696E73756666696369656E742045544800000000 PUSH1 0x44 DUP3 ADD MSTORE PUSH1 0x64 ADD PUSH2 0x372 JUMP JUMPDEST PUSH1 0x0 DUP6 DUP2 MSTORE PUSH1 0x2 PUSH1 0x20 MSTORE PUSH1 0x40 DUP2 KECCAK256 DUP1 SLOAD DUP6 SWAP3 SWAP1 PUSH2 0x13C6 SWAP1 DUP5 SWAP1 PUSH2 0x1E65 JUMP JUMPDEST SWAP1 SWAP2 SSTORE POP POP PUSH1 0x40 MLOAD PUSH1 0x0 SWAP1 CALLER SWAP1 DUP6 SWAP1 DUP4 DUP2 DUP2 DUP2 DUP6 DUP8 GAS CALL SWAP3 POP POP POP RETURNDATASIZE DUP1 PUSH1 0x0 DUP2 EQ PUSH2 0x140D JUMPI PUSH1 0x40 MLOAD SWAP2 POP PUSH1 0x1F NOT PUSH1 0x3F RETURNDATASIZE ADD AND DUP3 ADD PUSH1 0x40 MSTORE RETURNDATASIZE DUP3 MSTORE RETURNDATASIZE PUSH1 0x0 PUSH1 0x20 DUP5 ADD RETURNDATACOPY PUSH2 0x1412 JUMP JUMPDEST PUSH1 0x60 SWAP2 POP JUMPDEST POP POP SWAP1 POP DUP1 PUSH2 0x1463 JUMPI PUSH1 0x40 MLOAD PUSH3 0x461BCD PUSH1 0xE5 SHL DUP2 MSTORE PUSH1 0x20 PUSH1 0x4 DUP3 ADD MSTORE PUSH1 0x1F PUSH1 0x24 DUP3 ADD MSTORE PUSH32 0x4167656E745661756C743A20455448207472616E73666572206661696C656400 PUSH1 0x44 DUP3 ADD MSTORE PUSH1 0x64 ADD PUSH2 0x372 JUMP JUMPDEST POP PUSH2 0x1527 JUMP JUMPDEST PUSH1 0x0 DUP6 DUP2 MSTORE PUSH1 0x3 PUSH1 0x20 SWAP1 DUP2 MSTORE PUSH1 0x40 DUP1 DUP4 KECCAK256 PUSH1 0x1 PUSH1 0x1 PUSH1 0xA0 SHL SUB DUP9 AND DUP5 MSTORE SWAP1 SWAP2 MSTORE SWAP1 KECCAK256 SLOAD DUP4 GT ISZERO PUSH2 0x14DB JUMPI PUSH1 0x40 MLOAD PUSH3 0x461BCD PUSH1 0xE5 SHL DUP2 MSTORE PUSH1 0x20 PUSH1 0x4 DUP3 ADD MSTORE PUSH1 0x1E PUSH1 0x24 DUP3 ADD MSTORE PUSH32 0x4167656E745661756C743A20696E73756666696369656E7420746F6B656E0000 PUSH1 0x44 DUP3 ADD MSTORE PUSH1 0x64 ADD PUSH2 0x372 JUMP JUMPDEST PUSH1 0x0 DUP6 DUP2 MSTORE PUSH1 0x3 PUSH1 0x20 SWAP1 DUP2 MSTORE PUSH1 0x40 DUP1 DUP4 KECCAK256 PUSH1 0x1 PUSH1 0x1 PUSH1 0xA0 SHL SUB DUP9 AND DUP5 MSTORE SWAP1 SWAP2 MSTORE DUP2 KECCAK256 DUP1 SLOAD DUP6 SWAP3 SWAP1 PUSH2 0x150D SWAP1 DUP5 SWAP1 PUSH2 0x1E65 JUMP JUMPDEST SWAP1 SWAP2 SSTORE POP PUSH2 0x1527 SWAP1 POP PUSH1 0x1 PUSH1 0x1 PUSH1 0xA0 SHL SUB DUP6 AND CALLER DUP6 PUSH2 0x1A40 JUMP JUMPDEST DUP4 PUSH1 0x1 PUSH1 0x1 PUSH1 0xA0 SHL SUB AND DUP6 PUSH32 0xCF7D23A3CBE4E8B36FF82FD1B05B1B17373DC7804B4EBBD6E2356716EF202372 DUP6 PUSH1 0x40 MLOAD PUSH2 0x1563 SWAP2 DUP2 MSTORE PUSH1 0x20 ADD SWAP1 JUMP JUMPDEST PUSH1 0x40 MLOAD DUP1 SWAP2 SUB SWAP1 LOG3 PUSH2 0x1582 PUSH1 0x1 PUSH1 0x0 DUP1 MLOAD PUSH1 0x20 PUSH2 0x1F28 DUP4 CODECOPY DUP2 MLOAD SWAP2 MSTORE SSTORE JUMP JUMPDEST POP POP POP POP POP JUMP JUMPDEST PUSH2 0x1597 DUP5 DUP5 DUP5 DUP5 PUSH1 0x1 PUSH2 0x1A7A JUMP JUMPDEST PUSH2 0x15BF JUMPI PUSH1 0x40 MLOAD PUSH4 0x5274AFE7 PUSH1 0xE0 SHL DUP2 MSTORE PUSH1 0x1 PUSH1 0x1 PUSH1 0xA0 SHL SUB DUP6 AND PUSH1 0x4 DUP3 ADD MSTORE PUSH1 0x24 ADD PUSH2 0x372 JUMP JUMPDEST POP POP POP POP JUMP JUMPDEST PUSH2 0x15CD PUSH2 0x1AEC JUMP JUMPDEST PUSH1 0x2 PUSH1 0x0 DUP1 MLOAD PUSH1 0x20 PUSH2 0x1F28 DUP4 CODECOPY DUP2 MLOAD SWAP2 MSTORE SSTORE JUMP JUMPDEST PUSH1 0x0 DUP5 DUP2 MSTORE PUSH1 0x4 PUSH1 0x20 MSTORE PUSH1 0x40 SWAP1 KECCAK256 PUSH1 0x3 DUP2 ADD SLOAD ISZERO PUSH2 0x164D JUMPI DUP1 PUSH1 0x3 ADD SLOAD TIMESTAMP LT ISZERO PUSH2 0x164D JUMPI PUSH1 0x40 MLOAD PUSH3 0x461BCD PUSH1 0xE5 SHL DUP2 MSTORE PUSH1 0x20 PUSH1 0x4 DUP3 ADD MSTORE PUSH1 0x1C PUSH1 0x24 DUP3 ADD MSTORE PUSH32 0x4167656E745661756C743A2072756C6573206E6F742061637469766500000000 PUSH1 0x44 DUP3 ADD MSTORE PUSH1 0x64 ADD PUSH2 0x372 JUMP JUMPDEST PUSH1 0x4 DUP2 ADD SLOAD ISZERO PUSH2 0x16AB JUMPI DUP1 PUSH1 0x4 ADD SLOAD TIMESTAMP GT ISZERO PUSH2 0x16AB JUMPI PUSH1 0x40 MLOAD PUSH3 0x461BCD PUSH1 0xE5 SHL DUP2 MSTORE PUSH1 0x20 PUSH1 0x4 DUP3 ADD MSTORE PUSH1 0x19 PUSH1 0x24 DUP3 ADD MSTORE PUSH32 0x4167656E745661756C743A2072756C6573206578706972656400000000000000 PUSH1 0x44 DUP3 ADD MSTORE PUSH1 0x64 ADD PUSH2 0x372 JUMP JUMPDEST DUP1 SLOAD ISZERO PUSH2 0x1703 JUMPI DUP1 SLOAD DUP4 GT ISZERO PUSH2 0x1703 JUMPI PUSH1 0x40 MLOAD PUSH3 0x461BCD PUSH1 0xE5 SHL DUP2 MSTORE PUSH1 0x20 PUSH1 0x4 DUP3 ADD MSTORE PUSH1 0x1C PUSH1 0x24 DUP3 ADD MSTORE PUSH32 0x4167656E745661756C743A2065786365656473207478206C696D697400000000 PUSH1 0x44 DUP3 ADD MSTORE PUSH1 0x64 ADD PUSH2 0x372 JUMP JUMPDEST PUSH1 0x0 DUP6 DUP2 MSTORE PUSH1 0x5 PUSH1 0x20 MSTORE PUSH1 0x40 SWAP1 KECCAK256 SLOAD ISZERO PUSH2 0x1793 JUMPI PUSH1 0x0 DUP6 DUP2 MSTORE PUSH1 0x7 PUSH1 0x20 SWAP1 DUP2 MSTORE PUSH1 0x40 DUP1 DUP4 KECCAK256 PUSH1 0x1 PUSH1 0x1 PUSH1 0xA0 SHL SUB DUP9 AND DUP5 MSTORE SWAP1 SWAP2 MSTORE SWAP1 KECCAK256 SLOAD PUSH1 0xFF AND PUSH2 0x1793 JUMPI PUSH1 0x40 MLOAD PUSH3 0x461BCD PUSH1 0xE5 SHL DUP2 MSTORE PUSH1 0x20 PUSH1 0x4 DUP3 ADD MSTORE PUSH1 0x21 PUSH1 0x24 DUP3 ADD MSTORE PUSH32 0x4167656E745661756C743A20726563697069656E74206E6F7420616C6C6F7765 PUSH1 0x44 DUP3 ADD MSTORE PUSH1 0x19 PUSH1 0xFA SHL PUSH1 0x64 DUP3 ADD MSTORE PUSH1 0x84 ADD PUSH2 0x372 JUMP JUMPDEST PUSH1 0x0 DUP6 DUP2 MSTORE PUSH1 0x6 PUSH1 0x20 MSTORE PUSH1 0x40 SWAP1 KECCAK256 SLOAD ISZERO PUSH2 0x1819 JUMPI PUSH1 0x0 DUP6 DUP2 MSTORE PUSH1 0x8 PUSH1 0x20 SWAP1 DUP2 MSTORE PUSH1 0x40 DUP1 DUP4 KECCAK256 PUSH1 0x1 PUSH1 0x1 PUSH1 0xA0 SHL SUB DUP7 AND DUP5 MSTORE SWAP1 SWAP2 MSTORE SWAP1 KECCAK256 SLOAD PUSH1 0xFF AND PUSH2 0x1819 JUMPI PUSH1 0x40 MLOAD PUSH3 0x461BCD PUSH1 0xE5 SHL DUP2 MSTORE PUSH1 0x20 PUSH1 0x4 DUP3 ADD MSTORE PUSH1 0x1D PUSH1 0x24 DUP3 ADD MSTORE PUSH32 0x4167656E745661756C743A20746F6B656E206E6F7420616C6C6F776564000000 PUSH1 0x44 DUP3 ADD MSTORE PUSH1 0x64 ADD PUSH2 0x372 JUMP JUMPDEST PUSH1 0x1 DUP2 ADD SLOAD ISZERO PUSH2 0x18C0 JUMPI PUSH1 0x0 DUP6 DUP2 MSTORE PUSH1 0x9 PUSH1 0x20 SWAP1 DUP2 MSTORE PUSH1 0x40 DUP1 DUP4 KECCAK256 PUSH1 0x1 PUSH1 0x1 PUSH1 0xA0 SHL SUB DUP7 AND DUP5 MSTORE SWAP1 SWAP2 MSTORE DUP2 KECCAK256 PUSH1 0x1 DUP2 ADD SLOAD SWAP1 SWAP2 SWAP1 TIMESTAMP LT PUSH2 0x185A JUMPI PUSH1 0x0 PUSH2 0x185D JUMP JUMPDEST DUP2 SLOAD JUMPDEST PUSH1 0x1 DUP5 ADD SLOAD SWAP1 SWAP2 POP PUSH2 0x186F DUP7 DUP4 PUSH2 0x1E4C JUMP JUMPDEST GT ISZERO PUSH2 0x18BD JUMPI PUSH1 0x40 MLOAD PUSH3 0x461BCD PUSH1 0xE5 SHL DUP2 MSTORE PUSH1 0x20 PUSH1 0x4 DUP3 ADD DUP2 SWAP1 MSTORE PUSH1 0x24 DUP3 ADD MSTORE PUSH32 0x4167656E745661756C743A206461696C79206C696D6974206578636565646564 PUSH1 0x44 DUP3 ADD MSTORE PUSH1 0x64 ADD PUSH2 0x372 JUMP JUMPDEST POP POP JUMPDEST PUSH1 0x2 DUP2 ADD SLOAD ISZERO PUSH2 0x1582 JUMPI PUSH1 0x0 DUP6 DUP2 MSTORE PUSH1 0xA PUSH1 0x20 SWAP1 DUP2 MSTORE PUSH1 0x40 DUP1 DUP4 KECCAK256 PUSH1 0x1 PUSH1 0x1 PUSH1 0xA0 SHL SUB DUP7 AND DUP5 MSTORE SWAP1 SWAP2 MSTORE DUP2 KECCAK256 PUSH1 0x1 DUP2 ADD SLOAD SWAP1 SWAP2 SWAP1 TIMESTAMP LT PUSH2 0x1901 JUMPI PUSH1 0x0 PUSH2 0x1904 JUMP JUMPDEST DUP2 SLOAD JUMPDEST PUSH1 0x2 DUP5 ADD SLOAD SWAP1 SWAP2 POP PUSH2 0x1916 DUP7 DUP4 PUSH2 0x1E4C JUMP JUMPDEST GT ISZERO PUSH2 0x196F JUMPI PUSH1 0x40 MLOAD PUSH3 0x461BCD PUSH1 0xE5 SHL DUP2 MSTORE PUSH1 0x20 PUSH1 0x4 DUP3 ADD MSTORE PUSH1 0x22 PUSH1 0x24 DUP3 ADD MSTORE PUSH32 0x4167656E745661756C743A206D6F6E74686C79206C696D697420657863656564 PUSH1 0x44 DUP3 ADD MSTORE PUSH2 0x1959 PUSH1 0xF2 SHL PUSH1 0x64 DUP3 ADD MSTORE PUSH1 0x84 ADD PUSH2 0x372 JUMP JUMPDEST POP POP POP POP POP POP POP JUMP JUMPDEST PUSH1 0x0 DUP4 DUP2 MSTORE PUSH1 0x9 PUSH1 0x20 SWAP1 DUP2 MSTORE PUSH1 0x40 DUP1 DUP4 KECCAK256 PUSH1 0x1 PUSH1 0x1 PUSH1 0xA0 SHL SUB DUP7 AND DUP5 MSTORE SWAP1 SWAP2 MSTORE SWAP1 KECCAK256 PUSH1 0x1 DUP2 ADD SLOAD TIMESTAMP LT PUSH2 0x19BF JUMPI DUP2 DUP2 SSTORE PUSH2 0x19B5 PUSH3 0x15180 TIMESTAMP PUSH2 0x1E4C JUMP JUMPDEST PUSH1 0x1 DUP3 ADD SSTORE PUSH2 0x19D9 JUMP JUMPDEST DUP2 DUP2 PUSH1 0x0 ADD PUSH1 0x0 DUP3 DUP3 SLOAD PUSH2 0x19D3 SWAP2 SWAP1 PUSH2 0x1E4C JUMP JUMPDEST SWAP1 SWAP2 SSTORE POP POP JUMPDEST PUSH1 0x0 DUP5 DUP2 MSTORE PUSH1 0xA PUSH1 0x20 SWAP1 DUP2 MSTORE PUSH1 0x40 DUP1 DUP4 KECCAK256 PUSH1 0x1 PUSH1 0x1 PUSH1 0xA0 SHL SUB DUP8 AND DUP5 MSTORE SWAP1 SWAP2 MSTORE SWAP1 KECCAK256 PUSH1 0x1 DUP2 ADD SLOAD TIMESTAMP LT PUSH2 0x1A20 JUMPI DUP3 DUP2 SSTORE PUSH2 0x1A16 PUSH3 0x278D00 TIMESTAMP PUSH2 0x1E4C JUMP JUMPDEST PUSH1 0x1 DUP3 ADD SSTORE PUSH2 0x1582 JUMP JUMPDEST DUP3 DUP2 PUSH1 0x0 ADD PUSH1 0x0 DUP3 DUP3 SLOAD PUSH2 0x1A34 SWAP2 SWAP1 PUSH2 0x1E4C JUMP JUMPDEST SWAP1 SWAP2 SSTORE POP POP POP POP POP POP POP JUMP JUMPDEST PUSH2 0x1A4D DUP4 DUP4 DUP4 PUSH1 0x1 PUSH2 0x1B1E JUMP JUMPDEST PUSH2 0x1A75 JUMPI PUSH1 0x40 MLOAD PUSH4 0x5274AFE7 PUSH1 0xE0 SHL DUP2 MSTORE PUSH1 0x1 PUSH1 0x1 PUSH1 0xA0 SHL SUB DUP5 AND PUSH1 0x4 DUP3 ADD MSTORE PUSH1 0x24 ADD PUSH2 0x372 JUMP JUMPDEST POP POP POP JUMP JUMPDEST PUSH1 0x40 MLOAD PUSH4 0x23B872DD PUSH1 0xE0 SHL PUSH1 0x0 DUP2 DUP2 MSTORE PUSH1 0x1 PUSH1 0x1 PUSH1 0xA0 SHL SUB DUP8 DUP2 AND PUSH1 0x4 MSTORE DUP7 AND PUSH1 0x24 MSTORE PUSH1 0x44 DUP6 SWAP1 MSTORE SWAP2 PUSH1 0x20 DUP4 PUSH1 0x64 DUP2 DUP1 DUP13 GAS CALL SWAP3 POP PUSH1 0x1 PUSH1 0x0 MLOAD EQ DUP4 AND PUSH2 0x1ADA JUMPI DUP4 DUP4 ISZERO AND ISZERO PUSH2 0x1ACD JUMPI RETURNDATASIZE PUSH1 0x0 DUP3 RETURNDATACOPY RETURNDATASIZE DUP2 REVERT JUMPDEST PUSH1 0x0 DUP9 EXTCODESIZE GT RETURNDATASIZE ISZERO AND DUP4 AND SWAP3 POP JUMPDEST PUSH1 0x40 MSTORE POP PUSH1 0x0 PUSH1 0x60 MSTORE SWAP6 SWAP5 POP POP POP POP POP JUMP JUMPDEST PUSH1 0x0 DUP1 MLOAD PUSH1 0x20 PUSH2 0x1F28 DUP4 CODECOPY DUP2 MLOAD SWAP2 MSTORE SLOAD PUSH1 0x2 SUB PUSH2 0x1B1C JUMPI PUSH1 0x40 MLOAD PUSH4 0x3EE5AEB5 PUSH1 0xE0 SHL DUP2 MSTORE PUSH1 0x4 ADD PUSH1 0x40 MLOAD DUP1 SWAP2 SUB SWAP1 REVERT JUMPDEST JUMP JUMPDEST PUSH1 0x40 MLOAD PUSH4 0xA9059CBB PUSH1 0xE0 SHL PUSH1 0x0 DUP2 DUP2 MSTORE PUSH1 0x1 PUSH1 0x1 PUSH1 0xA0 SHL SUB DUP7 AND PUSH1 0x4 MSTORE PUSH1 0x24 DUP6 SWAP1 MSTORE SWAP2 PUSH1 0x20 DUP4 PUSH1 0x44 DUP2 DUP1 DUP12 GAS CALL SWAP3 POP PUSH1 0x1 PUSH1 0x0 MLOAD EQ DUP4 AND PUSH2 0x1B78 JUMPI DUP4 DUP4 ISZERO AND ISZERO PUSH2 0x1B6B JUMPI RETURNDATASIZE PUSH1 0x0 DUP3 RETURNDATACOPY RETURNDATASIZE DUP2 REVERT JUMPDEST PUSH1 0x0 DUP8 EXTCODESIZE GT RETURNDATASIZE ISZERO AND DUP4 AND SWAP3 POP JUMPDEST PUSH1 0x40 MSTORE POP SWAP5 SWAP4 POP POP POP POP JUMP JUMPDEST POP DUP1 SLOAD PUSH1 0x0 DUP3 SSTORE SWAP1 PUSH1 0x0 MSTORE PUSH1 0x20 PUSH1 0x0 KECCAK256 SWAP1 DUP2 ADD SWAP1 PUSH2 0x1BA2 SWAP2 SWAP1 PUSH2 0x1BA5 JUMP JUMPDEST POP JUMP JUMPDEST JUMPDEST DUP1 DUP3 GT ISZERO PUSH2 0x1BBA JUMPI PUSH1 0x0 DUP2 SSTORE PUSH1 0x1 ADD PUSH2 0x1BA6 JUMP JUMPDEST POP SWAP1 JUMP JUMPDEST DUP1 CALLDATALOAD PUSH1 0x1 PUSH1 0x1 PUSH1 0xA0 SHL SUB DUP2 AND DUP2 EQ PUSH2 0x1BD5 JUMPI PUSH1 0x0 DUP1 REVERT JUMPDEST SWAP2 SWAP1 POP JUMP JUMPDEST PUSH1 0x0 DUP1 PUSH1 0x0 PUSH1 0x60 DUP5 DUP7 SUB SLT ISZERO PUSH2 0x1BEF JUMPI PUSH1 0x0 DUP1 REVERT JUMPDEST DUP4 CALLDATALOAD SWAP3 POP PUSH2 0x1BFF PUSH1 0x20 DUP6 ADD PUSH2 0x1BBE JUMP JUMPDEST SWAP2 POP PUSH1 0x40 DUP5 ADD CALLDATALOAD SWAP1 POP SWAP3 POP SWAP3 POP SWAP3 JUMP JUMPDEST PUSH1 0x0 DUP1 PUSH1 0x40 DUP4 DUP6 SUB SLT ISZERO PUSH2 0x1C22 JUMPI PUSH1 0x0 DUP1 REVERT JUMPDEST DUP3 CALLDATALOAD SWAP2 POP PUSH2 0x1C32 PUSH1 0x20 DUP5 ADD PUSH2 0x1BBE JUMP JUMPDEST SWAP1 POP SWAP3 POP SWAP3 SWAP1 POP JUMP JUMPDEST PUSH1 0x0 DUP1 PUSH1 0x40 DUP4 DUP6 SUB SLT ISZERO PUSH2 0x1C4E JUMPI PUSH1 0x0 DUP1 REVERT JUMPDEST DUP3 CALLDATALOAD SWAP2 POP PUSH1 0x20 DUP4 ADD CALLDATALOAD PUSH8 0xFFFFFFFFFFFFFFFF DUP2 GT ISZERO PUSH2 0x1C6C JUMPI PUSH1 0x0 DUP1 REVERT JUMPDEST DUP4 ADD PUSH1 0xE0 DUP2 DUP7 SUB SLT ISZERO PUSH2 0x1C7E JUMPI PUSH1 0x0 DUP1 REVERT JUMPDEST DUP1 SWAP2 POP POP SWAP3 POP SWAP3 SWAP1 POP JUMP JUMPDEST PUSH1 0x0 PUSH1 0x20 DUP3 DUP5 SUB SLT ISZERO PUSH2 0x1C9B JUMPI PUSH1 0x0 DUP1 REVERT JUMPDEST POP CALLDATALOAD SWAP2 SWAP1 POP JUMP JUMPDEST PUSH1 0x0 DUP2 MLOAD DUP1 DUP5 MSTORE PUSH1 0x20 DUP1 DUP6 ADD SWAP5 POP PUSH1 0x20 DUP5 ADD PUSH1 0x0 JUMPDEST DUP4 DUP2 LT ISZERO PUSH2 0x1CDC JUMPI DUP2 MLOAD PUSH1 0x1 PUSH1 0x1 PUSH1 0xA0 SHL SUB AND DUP8 MSTORE SWAP6 DUP3 ADD SWAP6 SWAP1 DUP3 ADD SWAP1 PUSH1 0x1 ADD PUSH2 0x1CB7 JUMP JUMPDEST POP SWAP5 SWAP6 SWAP5 POP POP POP POP POP JUMP JUMPDEST PUSH1 0x20 DUP2 MSTORE DUP2 MLOAD PUSH1 0x20 DUP3 ADD MSTORE PUSH1 0x20 DUP3 ADD MLOAD PUSH1 0x40 DUP3 ADD MSTORE PUSH1 0x40 DUP3 ADD MLOAD PUSH1 0x60 DUP3 ADD MSTORE PUSH1 0x0 PUSH1 0x60 DUP4 ADD MLOAD PUSH1 0xE0 PUSH1 0x80 DUP5 ADD MSTORE PUSH2 0x1D22 PUSH2 0x100 DUP5 ADD DUP3 PUSH2 0x1CA2 JUMP JUMPDEST SWAP1 POP PUSH1 0x80 DUP5 ADD MLOAD PUSH1 0x1F NOT DUP5 DUP4 SUB ADD PUSH1 0xA0 DUP6 ADD MSTORE PUSH2 0x1D3F DUP3 DUP3 PUSH2 0x1CA2 JUMP JUMPDEST SWAP2 POP POP PUSH1 0xA0 DUP5 ADD MLOAD PUSH1 0xC0 DUP5 ADD MSTORE PUSH1 0xC0 DUP5 ADD MLOAD PUSH1 0xE0 DUP5 ADD MSTORE DUP1 SWAP2 POP POP SWAP3 SWAP2 POP POP JUMP JUMPDEST PUSH1 0x0 DUP1 PUSH1 0x0 DUP1 PUSH1 0x80 DUP6 DUP8 SUB SLT ISZERO PUSH2 0x1D76 JUMPI PUSH1 0x0 DUP1 REVERT JUMPDEST DUP5 CALLDATALOAD SWAP4 POP PUSH2 0x1D86 PUSH1 0x20 DUP7 ADD PUSH2 0x1BBE JUMP JUMPDEST SWAP3 POP PUSH1 0x40 DUP6 ADD CALLDATALOAD SWAP2 POP PUSH2 0x1D9B PUSH1 0x60 DUP7 ADD PUSH2 0x1BBE JUMP JUMPDEST SWAP1 POP SWAP3 SWAP6 SWAP2 SWAP5 POP SWAP3 POP JUMP JUMPDEST PUSH1 0x0 PUSH1 0x20 DUP3 DUP5 SUB SLT ISZERO PUSH2 0x1DB8 JUMPI PUSH1 0x0 DUP1 REVERT JUMPDEST PUSH2 0x1DC1 DUP3 PUSH2 0x1BBE JUMP JUMPDEST SWAP4 SWAP3 POP POP POP JUMP JUMPDEST PUSH1 0x20 DUP1 DUP3 MSTORE PUSH1 0x18 SWAP1 DUP3 ADD MSTORE PUSH32 0x4167656E745661756C743A207661756C74202165786973740000000000000000 PUSH1 0x40 DUP3 ADD MSTORE PUSH1 0x60 ADD SWAP1 JUMP JUMPDEST PUSH1 0x20 DUP1 DUP3 MSTORE PUSH1 0x17 SWAP1 DUP3 ADD MSTORE PUSH32 0x4167656E745661756C743A207A65726F20616D6F756E74000000000000000000 PUSH1 0x40 DUP3 ADD MSTORE PUSH1 0x60 ADD SWAP1 JUMP JUMPDEST PUSH4 0x4E487B71 PUSH1 0xE0 SHL PUSH1 0x0 MSTORE PUSH1 0x11 PUSH1 0x4 MSTORE PUSH1 0x24 PUSH1 0x0 REVERT JUMPDEST DUP1 DUP3 ADD DUP1 DUP3 GT ISZERO PUSH2 0x1E5F JUMPI PUSH2 0x1E5F PUSH2 0x1E36 JUMP JUMPDEST SWAP3 SWAP2 POP POP JUMP JUMPDEST DUP2 DUP2 SUB DUP2 DUP2 GT ISZERO PUSH2 0x1E5F JUMPI PUSH2 0x1E5F PUSH2 0x1E36 JUMP JUMPDEST PUSH1 0x20 DUP1 DUP3 MSTORE PUSH1 0x15 SWAP1 DUP3 ADD MSTORE PUSH21 0x20B3B2B73A2B30BAB63A1D103737BA1037BBB732B9 PUSH1 0x59 SHL PUSH1 0x40 DUP3 ADD MSTORE PUSH1 0x60 ADD SWAP1 JUMP JUMPDEST PUSH4 0x4E487B71 PUSH1 0xE0 SHL PUSH1 0x0 MSTORE PUSH1 0x32 PUSH1 0x4 MSTORE PUSH1 0x24 PUSH1 0x0 REVERT JUMPDEST PUSH1 0x0 DUP1 DUP4 CALLDATALOAD PUSH1 0x1E NOT DUP5 CALLDATASIZE SUB ADD DUP2 SLT PUSH2 0x1ED4 JUMPI PUSH1 0x0 DUP1 REVERT JUMPDEST DUP4 ADD DUP1 CALLDATALOAD SWAP2 POP PUSH8 0xFFFFFFFFFFFFFFFF DUP3 GT ISZERO PUSH2 0x1EEF JUMPI PUSH1 0x0 DUP1 REVERT JUMPDEST PUSH1 0x20 ADD SWAP2 POP PUSH1 0x5 DUP2 SWAP1 SHL CALLDATASIZE SUB DUP3 SGT ISZERO PUSH2 0x1F07 JUMPI PUSH1 0x0 DUP1 REVERT JUMPDEST SWAP3 POP SWAP3 SWAP1 POP JUMP JUMPDEST PUSH1 0x0 PUSH1 0x1 DUP3 ADD PUSH2 0x1F20 JUMPI PUSH2 0x1F20 PUSH2 0x1E36 JUMP JUMPDEST POP PUSH1 0x1 ADD SWAP1 JUMP INVALID SWAP12 PUSH24 0x9B17422D0DF92223018B32B4D1FA46E071723D6817E2486D STOP EXTCODESIZE 0xEC 0xC5 PUSH0 STOP LOG2 PUSH5 0x6970667358 0x22 SLT KECCAK256 PUSH3 0xE38340 0xD6 DUP15 GASLIMIT XOR SWAP10 PUSH22 0x94F8E371EDFB929B08D3610F5B40BE900FAE9FBF7FE9 PUSH5 0x736F6C6343 STOP ADDMOD XOR STOP CALLER "},"methodIdentifiers":{"createVault(address)":"b4bd6f46","deposit(uint256)":"b6b55f25","depositToken(uint256,address,uint256)":"0a9306d7","ethBalances(uint256)":"a6cfb522","getRemainingBudget(uint256,address)":"2eafe18c","getRules(uint256)":"8f7daf0f","nextVaultId()":"12ac1763","revokeAgent(uint256)":"ba7550d4","setRules(uint256,(uint256,uint256,uint256,address[],address[],uint256,uint256))":"694d1261","spend(uint256,address,uint256,address)":"b2a8d1df","tokenBalances(uint256,address)":"661d49b0","updateAgent(uint256,address)":"86878927","vaults(uint256)":"8c64ea4a","withdraw(uint256,address,uint256)":"e63697c8"}}}}}