{
  "_format": "hh-sol-artifact-1",
  "contractName": "AgentVault",
  "sourceName": "contracts/AgentVault.sol",
  "abi": [
    {
      "inputs": [],
      "name": "ReentrancyGuardReentrantCall",
      "type": "error"
    },
    {
      "inputs": [
        {
          "internalType": "address",
          "name": "token",
          "type": "address"
        }
      ],
      "name": "SafeERC20FailedOperation",
      "type": "error"
    },
    {
      "anonymous": false,
      "inputs": [
        {
          "indexed": true,
          "internalType": "uint256",
          "name": "vaultId",
          "type": "uint256"
        },
        {
          "indexed": true,
          "internalType": "address",
          "name": "agent",
          "type": "address"
        }
      ],
      "name": "AgentRevoked",
      "type": "event"
    },
    {
      "anonymous": false,
      "inputs": [
        {
          "indexed": true,
          "internalType": "uint256",
          "name": "vaultId",
          "type": "uint256"
        },
        {
          "indexed": true,
          "internalType": "address",
          "name": "oldAgent",
          "type": "address"
        },
        {
          "indexed": true,
          "internalType": "address",
          "name": "newAgent",
          "type": "address"
        }
      ],
      "name": "AgentUpdated",
      "type": "event"
    },
    {
      "anonymous": false,
      "inputs": [
        {
          "indexed": true,
          "internalType": "uint256",
          "name": "vaultId",
          "type": "uint256"
        },
        {
          "indexed": true,
          "internalType": "address",
          "name": "token",
          "type": "address"
        },
        {
          "indexed": false,
          "internalType": "uint256",
          "name": "amount",
          "type": "uint256"
        }
      ],
      "name": "Deposited",
      "type": "event"
    },
    {
      "anonymous": false,
      "inputs": [
        {
          "indexed": true,
          "internalType": "uint256",
          "name": "vaultId",
          "type": "uint256"
        }
      ],
      "name": "RulesSet",
      "type": "event"
    },
    {
      "anonymous": false,
      "inputs": [
        {
          "indexed": true,
          "internalType": "uint256",
          "name": "vaultId",
          "type": "uint256"
        },
        {
          "indexed": true,
          "internalType": "address",
          "name": "token",
          "type": "address"
        },
        {
          "indexed": true,
          "internalType": "address",
          "name": "to",
          "type": "address"
        },
        {
          "indexed": false,
          "internalType": "uint256",
          "name": "amount",
          "type": "uint256"
        }
      ],
      "name": "Spent",
      "type": "event"
    },
    {
      "anonymous": false,
      "inputs": [
        {
          "indexed": true,
          "internalType": "uint256",
          "name": "vaultId",
          "type": "uint256"
        },
        {
          "indexed": true,
          "internalType": "address",
          "name": "owner",
          "type": "address"
        },
        {
          "indexed": true,
          "internalType": "address",
          "name": "agent",
          "type": "address"
        }
      ],
      "name": "VaultCreated",
      "type": "event"
    },
    {
      "anonymous": false,
      "inputs": [
        {
          "indexed": true,
          "internalType": "uint256",
          "name": "vaultId",
          "type": "uint256"
        },
        {
          "indexed": true,
          "internalType": "address",
          "name": "token",
          "type": "address"
        },
        {
          "indexed": false,
          "internalType": "uint256",
          "name": "amount",
          "type": "uint256"
        }
      ],
      "name": "Withdrawn",
      "type": "event"
    },
    {
      "inputs": [
        {
          "internalType": "address",
          "name": "agent",
          "type": "address"
        }
      ],
      "name": "createVault",
      "outputs": [
        {
          "internalType": "uint256",
          "name": "vaultId",
          "type": "uint256"
        }
      ],
      "stateMutability": "nonpayable",
      "type": "function"
    },
    {
      "inputs": [
        {
          "internalType": "uint256",
          "name": "vaultId",
          "type": "uint256"
        }
      ],
      "name": "deposit",
      "outputs": [],
      "stateMutability": "payable",
      "type": "function"
    },
    {
      "inputs": [
        {
          "internalType": "uint256",
          "name": "vaultId",
          "type": "uint256"
        },
        {
          "internalType": "address",
          "name": "token",
          "type": "address"
        },
        {
          "internalType": "uint256",
          "name": "amount",
          "type": "uint256"
        }
      ],
      "name": "depositToken",
      "outputs": [],
      "stateMutability": "nonpayable",
      "type": "function"
    },
    {
      "inputs": [
        {
          "internalType": "uint256",
          "name": "",
          "type": "uint256"
        }
      ],
      "name": "ethBalances",
      "outputs": [
        {
          "internalType": "uint256",
          "name": "",
          "type": "uint256"
        }
      ],
      "stateMutability": "view",
      "type": "function"
    },
    {
      "inputs": [
        {
          "internalType": "uint256",
          "name": "vaultId",
          "type": "uint256"
        },
        {
          "internalType": "address",
          "name": "token",
          "type": "address"
        }
      ],
      "name": "getRemainingBudget",
      "outputs": [
        {
          "internalType": "uint256",
          "name": "dailyRemaining",
          "type": "uint256"
        },
        {
          "internalType": "uint256",
          "name": "monthlyRemaining",
          "type": "uint256"
        }
      ],
      "stateMutability": "view",
      "type": "function"
    },
    {
      "inputs": [
        {
          "internalType": "uint256",
          "name": "vaultId",
          "type": "uint256"
        }
      ],
      "name": "getRules",
      "outputs": [
        {
          "components": [
            {
              "internalType": "uint256",
              "name": "maxPerTransaction",
              "type": "uint256"
            },
            {
              "internalType": "uint256",
              "name": "dailyLimit",
              "type": "uint256"
            },
            {
              "internalType": "uint256",
              "name": "monthlyLimit",
              "type": "uint256"
            },
            {
              "internalType": "address[]",
              "name": "allowedRecipients",
              "type": "address[]"
            },
            {
              "internalType": "address[]",
              "name": "allowedTokens",
              "type": "address[]"
            },
            {
              "internalType": "uint256",
              "name": "validFrom",
              "type": "uint256"
            },
            {
              "internalType": "uint256",
              "name": "validUntil",
              "type": "uint256"
            }
          ],
          "internalType": "struct IAgentVault.Rules",
          "name": "",
          "type": "tuple"
        }
      ],
      "stateMutability": "view",
      "type": "function"
    },
    {
      "inputs": [],
      "name": "nextVaultId",
      "outputs": [
        {
          "internalType": "uint256",
          "name": "",
          "type": "uint256"
        }
      ],
      "stateMutability": "view",
      "type": "function"
    },
    {
      "inputs": [
        {
          "internalType": "uint256",
          "name": "vaultId",
          "type": "uint256"
        }
      ],
      "name": "revokeAgent",
      "outputs": [],
      "stateMutability": "nonpayable",
      "type": "function"
    },
    {
      "inputs": [
        {
          "internalType": "uint256",
          "name": "vaultId",
          "type": "uint256"
        },
        {
          "components": [
            {
              "internalType": "uint256",
              "name": "maxPerTransaction",
              "type": "uint256"
            },
            {
              "internalType": "uint256",
              "name": "dailyLimit",
              "type": "uint256"
            },
            {
              "internalType": "uint256",
              "name": "monthlyLimit",
              "type": "uint256"
            },
            {
              "internalType": "address[]",
              "name": "allowedRecipients",
              "type": "address[]"
            },
            {
              "internalType": "address[]",
              "name": "allowedTokens",
              "type": "address[]"
            },
            {
              "internalType": "uint256",
              "name": "validFrom",
              "type": "uint256"
            },
            {
              "internalType": "uint256",
              "name": "validUntil",
              "type": "uint256"
            }
          ],
          "internalType": "struct IAgentVault.Rules",
          "name": "rules",
          "type": "tuple"
        }
      ],
      "name": "setRules",
      "outputs": [],
      "stateMutability": "nonpayable",
      "type": "function"
    },
    {
      "inputs": [
        {
          "internalType": "uint256",
          "name": "vaultId",
          "type": "uint256"
        },
        {
          "internalType": "address",
          "name": "to",
          "type": "address"
        },
        {
          "internalType": "uint256",
          "name": "amount",
          "type": "uint256"
        },
        {
          "internalType": "address",
          "name": "token",
          "type": "address"
        }
      ],
      "name": "spend",
      "outputs": [],
      "stateMutability": "nonpayable",
      "type": "function"
    },
    {
      "inputs": [
        {
          "internalType": "uint256",
          "name": "",
          "type": "uint256"
        },
        {
          "internalType": "address",
          "name": "",
          "type": "address"
        }
      ],
      "name": "tokenBalances",
      "outputs": [
        {
          "internalType": "uint256",
          "name": "",
          "type": "uint256"
        }
      ],
      "stateMutability": "view",
      "type": "function"
    },
    {
      "inputs": [
        {
          "internalType": "uint256",
          "name": "vaultId",
          "type": "uint256"
        },
        {
          "internalType": "address",
          "name": "newAgent",
          "type": "address"
        }
      ],
      "name": "updateAgent",
      "outputs": [],
      "stateMutability": "nonpayable",
      "type": "function"
    },
    {
      "inputs": [
        {
          "internalType": "uint256",
          "name": "",
          "type": "uint256"
        }
      ],
      "name": "vaults",
      "outputs": [
        {
          "internalType": "address",
          "name": "owner",
          "type": "address"
        },
        {
          "internalType": "address",
          "name": "agent",
          "type": "address"
        },
        {
          "internalType": "bool",
          "name": "rulesSet",
          "type": "bool"
        }
      ],
      "stateMutability": "view",
      "type": "function"
    },
    {
      "inputs": [
        {
          "internalType": "uint256",
          "name": "vaultId",
          "type": "uint256"
        },
        {
          "internalType": "address",
          "name": "token",
          "type": "address"
        },
        {
          "internalType": "uint256",
          "name": "amount",
          "type": "uint256"
        }
      ],
      "name": "withdraw",
      "outputs": [],
      "stateMutability": "nonpayable",
      "type": "function"
    }
  ],
  "bytecode": "0x608060405234801561001057600080fd5b5060017f9b779b17422d0df92223018b32b4d1fa46e071723d6817e2486d003becc55f0055611f7d806100446000396000f3fe6080604052600436106100dd5760003560e01c80638f7daf0f1161007f578063b4bd6f4611610059578063b4bd6f46146102c9578063b6b55f25146102e9578063ba7550d4146102fc578063e63697c81461031c57600080fd5b80638f7daf0f1461024f578063a6cfb5221461027c578063b2a8d1df146102a957600080fd5b8063661d49b0116100bb578063661d49b014610162578063694d12611461019a57806386878927146101ba5780638c64ea4a146101da57600080fd5b80630a9306d7146100e257806312ac1763146101045780632eafe18c1461012d575b600080fd5b3480156100ee57600080fd5b506101026100fd366004611bda565b61033c565b005b34801561011057600080fd5b5061011a60005481565b6040519081526020015b60405180910390f35b34801561013957600080fd5b5061014d610148366004611c0f565b610483565b60408051928352602083019190915201610124565b34801561016e57600080fd5b5061011a61017d366004611c0f565b600360209081526000928352604080842090915290825290205481565b3480156101a657600080fd5b506101026101b5366004611c3b565b610558565b3480156101c657600080fd5b506101026101d5366004611c0f565b610906565b3480156101e657600080fd5b506102276101f5366004611c89565b600160208190526000918252604090912080549101546001600160a01b0391821691811690600160a01b900460ff1683565b604080516001600160a01b039485168152939092166020840152151590820152606001610124565b34801561025b57600080fd5b5061026f61026a366004611c89565b610a28565b6040516101249190611ce7565b34801561028857600080fd5b5061011a610297366004611c89565b60026020526000908152604090205481565b3480156102b557600080fd5b506101026102c4366004611d60565b610b8b565b3480156102d557600080fd5b5061011a6102e4366004611da6565b610f84565b6101026102f7366004611c89565b611090565b34801561030857600080fd5b50610102610317366004611c89565b611175565b34801561032857600080fd5b50610102610337366004611bda565b6112a6565b60008381526001602052604090205483906001600160a01b031661037b5760405162461bcd60e51b815260040161037290611dc8565b60405180910390fd5b6001600160a01b0383166103d15760405162461bcd60e51b815260206004820152601960248201527f4167656e745661756c743a20757365206465706f7369742829000000000000006044820152606401610372565b600082116103f15760405162461bcd60e51b815260040161037290611dff565b6104066001600160a01b038416333085611589565b60008481526003602090815260408083206001600160a01b038716845290915281208054849290610438908490611e4c565b90915550506040518281526001600160a01b0384169085907f1599c0fcf897af5babc2bfcf707f5dc050f841b044d97c3251ecec35b9abf80b9060200160405180910390a350505050565b6000828152600460209081526040808320600983528184206001600160a01b03861685529092528220600181015483929190839042106104c45760006104c7565b81545b9050808360010154116104db5760006104eb565b8083600101546104eb9190611e65565b6000888152600a602090815260408083206001600160a01b038b16845290915281206001810154929750914210610523576000610526565b81545b90508085600201541161053a57600061054a565b80856002015461054a9190611e65565b955050505050509250929050565b60008281526001602052604090205482906001600160a01b031661058e5760405162461bcd60e51b815260040161037290611dc8565b60008381526001602052604090205483906001600160a01b031633146105c65760405162461bcd60e51b815260040161037290611e78565b6040805160a080820183528535825260208087013581840190815287850135848601908152928801356060850190815260c08901356080860190815260008b8152600480865288822097518855935160018801559451600287015590516003860155519301929092556005909152908120905b81548110156106a25760008681526007602052604081208354829085908590811061066657610666611ea7565b6000918252602080832091909101546001600160a01b031683528201929092526040019020805460ff1916911515919091179055600101610639565b5060008581526005602052604081206106ba91611b84565b60005b6106ca6060860186611ebd565b905081101561076d5760006106e26060870187611ebd565b838181106106f2576106f2611ea7565b90506020020160208101906107079190611da6565b60008881526005602090815260408083208054600181810183559185528385200180546001600160a01b039096166001600160a01b0319909616861790558b845260078352818420948452939091529020805460ff1916821790559190910190506106bd565b506000858152600660205260408120905b81548110156107e7576000878152600860205260408120835482908590859081106107ab576107ab611ea7565b6000918252602080832091909101546001600160a01b031683528201929092526040019020805460ff191691151591909117905560010161077e565b5060008681526006602052604081206107ff91611b84565b60005b61080f6080870187611ebd565b90508110156108b25760006108276080880188611ebd565b8381811061083757610837611ea7565b905060200201602081019061084c9190611da6565b60008981526006602090815260408083208054600181810183559185528385200180546001600160a01b039096166001600160a01b0319909616861790558c845260088352818420948452939091529020805460ff191682179055919091019050610802565b506000868152600160208190526040808320909101805460ff60a01b1916600160a01b1790555187917f76ac82770c6b88897d65914f6084fef1dbe925bfa94e3bef1791ca2b6d17aeb591a2505050505050565b60008281526001602052604090205482906001600160a01b031661093c5760405162461bcd60e51b815260040161037290611dc8565b60008381526001602052604090205483906001600160a01b031633146109745760405162461bcd60e51b815260040161037290611e78565b6001600160a01b0383166109c35760405162461bcd60e51b81526020600482015260166024820152751059d95b9d15985d5b1d0e881e995c9bc81859d95b9d60521b6044820152606401610372565b600084815260016020819052604080832090910180546001600160a01b031981166001600160a01b038881169182179093559251911692839188917fddebe0203a5cb884d0e59d3c9b1500e3bfdd48633102167eb495f8d80c3bc7ee91a45050505050565b610a686040518060e00160405280600081526020016000815260200160008152602001606081526020016060815260200160008152602001600081525090565b6000828152600460209081526040808320815160e081018352815481526001820154818501526002820154818401528685526005845293829020805483518186028101860190945280845291949360608501939290830182828015610af657602002820191906000526020600020905b81546001600160a01b03168152600190910190602001808311610ad8575b5050505050815260200160066000868152602001908152602001600020805480602002602001604051908101604052809291908181526020018280548015610b6757602002820191906000526020600020905b81546001600160a01b03168152600190910190602001808311610b49575b50505050508152602001826003015481526020018260040154815250915050919050565b60008481526001602052604090205484906001600160a01b0316610bc15760405162461bcd60e51b815260040161037290611dc8565b6000858152600160208190526040909120015485906001600160a01b03163314610c255760405162461bcd60e51b81526020600482015260156024820152741059d95b9d15985d5b1d0e881b9bdd081859d95b9d605a1b6044820152606401610372565b610c2d6115c5565b60008411610c4d5760405162461bcd60e51b815260040161037290611dff565b6001600160a01b038516610ca35760405162461bcd60e51b815260206004820152601a60248201527f4167656e745661756c743a207a65726f20726563697069656e740000000000006044820152606401610372565b60008681526001602081905260409091200154600160a01b900460ff16610d0c5760405162461bcd60e51b815260206004820152601960248201527f4167656e745661756c743a2072756c6573206e6f7420736574000000000000006044820152606401610372565b610d18868686866115e1565b610d23868486611978565b6001600160a01b038316610e5957600086815260026020526040902054841115610d8f5760405162461bcd60e51b815260206004820152601c60248201527f4167656e745661756c743a20696e73756666696369656e7420455448000000006044820152606401610372565b60008681526002602052604081208054869290610dad908490611e65565b90915550506040516000906001600160a01b0387169086908381818185875af1925050503d8060008114610dfd576040519150601f19603f3d011682016040523d82523d6000602084013e610e02565b606091505b5050905080610e535760405162461bcd60e51b815260206004820152601f60248201527f4167656e745661756c743a20455448207472616e73666572206661696c6564006044820152606401610372565b50610f17565b60008681526003602090815260408083206001600160a01b0387168452909152902054841115610ecb5760405162461bcd60e51b815260206004820152601e60248201527f4167656e745661756c743a20696e73756666696369656e7420746f6b656e00006044820152606401610372565b60008681526003602090815260408083206001600160a01b038716845290915281208054869290610efd908490611e65565b90915550610f1790506001600160a01b0384168686611a40565b846001600160a01b0316836001600160a01b0316877f5c0321f3e9b9f197c4b7888184f436fcdecaa1aa532f2b11006049a2a5ef8c9387604051610f5d91815260200190565b60405180910390a4610f7c6001600080516020611f2883398151915255565b505050505050565b60006001600160a01b038216610fd55760405162461bcd60e51b81526020600482015260166024820152751059d95b9d15985d5b1d0e881e995c9bc81859d95b9d60521b6044820152606401610372565b600080549080610fe483611f0e565b9091555060408051606081018252338082526001600160a01b0386811660208085018281526000868801818152898252600193849052888220975188546001600160a01b03191690871617885591519690920180549151969094166001600160a81b031990911617600160a01b95151595909502949094179091559251939450919284917fa8596cc4a052ecc7656e9ca0fb7a10472573699e3aa34ac5659bc37c1b0a44fc91a4919050565b60008181526001602052604090205481906001600160a01b03166110c65760405162461bcd60e51b815260040161037290611dc8565b600034116111165760405162461bcd60e51b815260206004820152601860248201527f4167656e745661756c743a207a65726f206465706f73697400000000000000006044820152606401610372565b60008281526002602052604081208054349290611134908490611e4c565b909155505060405134815260009083907f1599c0fcf897af5babc2bfcf707f5dc050f841b044d97c3251ecec35b9abf80b9060200160405180910390a35050565b60008181526001602052604090205481906001600160a01b03166111ab5760405162461bcd60e51b815260040161037290611dc8565b60008281526001602052604090205482906001600160a01b031633146111e35760405162461bcd60e51b815260040161037290611e78565b600083815260016020819052604090912001546001600160a01b03168061124c5760405162461bcd60e51b815260206004820152601b60248201527f4167656e745661756c743a20616c7265616479207265766f6b656400000000006044820152606401610372565b600084815260016020819052604080832090910180546001600160a01b0319169055516001600160a01b0383169186917f1ee8b1fcad726aaf8b625355cf86f03d512c285181f509be2a18e0359ddaa9b69190a350505050565b60008381526001602052604090205483906001600160a01b03166112dc5760405162461bcd60e51b815260040161037290611dc8565b60008481526001602052604090205484906001600160a01b031633146113145760405162461bcd60e51b815260040161037290611e78565b61131c6115c5565b6000831161133c5760405162461bcd60e51b815260040161037290611dff565b6001600160a01b038416611469576000858152600260205260409020548311156113a85760405162461bcd60e51b815260206004820152601c60248201527f4167656e745661756c743a20696e73756666696369656e7420455448000000006044820152606401610372565b600085815260026020526040812080548592906113c6908490611e65565b9091555050604051600090339085908381818185875af1925050503d806000811461140d576040519150601f19603f3d011682016040523d82523d6000602084013e611412565b606091505b50509050806114635760405162461bcd60e51b815260206004820152601f60248201527f4167656e745661756c743a20455448207472616e73666572206661696c6564006044820152606401610372565b50611527565b60008581526003602090815260408083206001600160a01b03881684529091529020548311156114db5760405162461bcd60e51b815260206004820152601e60248201527f4167656e745661756c743a20696e73756666696369656e7420746f6b656e00006044820152606401610372565b60008581526003602090815260408083206001600160a01b03881684529091528120805485929061150d908490611e65565b9091555061152790506001600160a01b0385163385611a40565b836001600160a01b0316857fcf7d23a3cbe4e8b36ff82fd1b05b1b17373dc7804b4ebbd6e2356716ef2023728560405161156391815260200190565b60405180910390a36115826001600080516020611f2883398151915255565b5050505050565b611597848484846001611a7a565b6115bf57604051635274afe760e01b81526001600160a01b0385166004820152602401610372565b50505050565b6115cd611aec565b6002600080516020611f2883398151915255565b600084815260046020526040902060038101541561164d57806003015442101561164d5760405162461bcd60e51b815260206004820152601c60248201527f4167656e745661756c743a2072756c6573206e6f7420616374697665000000006044820152606401610372565b6004810154156116ab5780600401544211156116ab5760405162461bcd60e51b815260206004820152601960248201527f4167656e745661756c743a2072756c65732065787069726564000000000000006044820152606401610372565b8054156117035780548311156117035760405162461bcd60e51b815260206004820152601c60248201527f4167656e745661756c743a2065786365656473207478206c696d6974000000006044820152606401610372565b600085815260056020526040902054156117935760008581526007602090815260408083206001600160a01b038816845290915290205460ff166117935760405162461bcd60e51b815260206004820152602160248201527f4167656e745661756c743a20726563697069656e74206e6f7420616c6c6f77656044820152601960fa1b6064820152608401610372565b600085815260066020526040902054156118195760008581526008602090815260408083206001600160a01b038616845290915290205460ff166118195760405162461bcd60e51b815260206004820152601d60248201527f4167656e745661756c743a20746f6b656e206e6f7420616c6c6f7765640000006044820152606401610372565b6001810154156118c05760008581526009602090815260408083206001600160a01b038616845290915281206001810154909190421061185a57600061185d565b81545b600184015490915061186f8683611e4c565b11156118bd5760405162461bcd60e51b815260206004820181905260248201527f4167656e745661756c743a206461696c79206c696d69742065786365656465646044820152606401610372565b50505b600281015415611582576000858152600a602090815260408083206001600160a01b0386168452909152812060018101549091904210611901576000611904565b81545b60028401549091506119168683611e4c565b111561196f5760405162461bcd60e51b815260206004820152602260248201527f4167656e745661756c743a206d6f6e74686c79206c696d697420657863656564604482015261195960f21b6064820152608401610372565b50505050505050565b60008381526009602090815260408083206001600160a01b03861684529091529020600181015442106119bf578181556119b56201518042611e4c565b60018201556119d9565b818160000160008282546119d39190611e4c565b90915550505b6000848152600a602090815260408083206001600160a01b0387168452909152902060018101544210611a2057828155611a1662278d0042611e4c565b6001820155611582565b82816000016000828254611a349190611e4c565b90915550505050505050565b611a4d8383836001611b1e565b611a7557604051635274afe760e01b81526001600160a01b0384166004820152602401610372565b505050565b6040516323b872dd60e01b60008181526001600160a01b038781166004528616602452604485905291602083606481808c5af192506001600051148316611ada578383151615611acd573d6000823e3d81fd5b6000883b113d1516831692505b60405250600060605295945050505050565b600080516020611f2883398151915254600203611b1c57604051633ee5aeb560e01b815260040160405180910390fd5b565b60405163a9059cbb60e01b60008181526001600160a01b038616600452602485905291602083604481808b5af192506001600051148316611b78578383151615611b6b573d6000823e3d81fd5b6000873b113d1516831692505b60405250949350505050565b5080546000825590600052602060002090810190611ba29190611ba5565b50565b5b80821115611bba5760008155600101611ba6565b5090565b80356001600160a01b0381168114611bd557600080fd5b919050565b600080600060608486031215611bef57600080fd5b83359250611bff60208501611bbe565b9150604084013590509250925092565b60008060408385031215611c2257600080fd5b82359150611c3260208401611bbe565b90509250929050565b60008060408385031215611c4e57600080fd5b82359150602083013567ffffffffffffffff811115611c6c57600080fd5b830160e08186031215611c7e57600080fd5b809150509250929050565b600060208284031215611c9b57600080fd5b5035919050565b60008151808452602080850194506020840160005b83811015611cdc5781516001600160a01b031687529582019590820190600101611cb7565b509495945050505050565b602081528151602082015260208201516040820152604082015160608201526000606083015160e06080840152611d22610100840182611ca2565b90506080840151601f198483030160a0850152611d3f8282611ca2565b91505060a084015160c084015260c084015160e08401528091505092915050565b60008060008060808587031215611d7657600080fd5b84359350611d8660208601611bbe565b925060408501359150611d9b60608601611bbe565b905092959194509250565b600060208284031215611db857600080fd5b611dc182611bbe565b9392505050565b60208082526018908201527f4167656e745661756c743a207661756c74202165786973740000000000000000604082015260600190565b60208082526017908201527f4167656e745661756c743a207a65726f20616d6f756e74000000000000000000604082015260600190565b634e487b7160e01b600052601160045260246000fd5b80820180821115611e5f57611e5f611e36565b92915050565b81810381811115611e5f57611e5f611e36565b60208082526015908201527420b3b2b73a2b30bab63a1d103737ba1037bbb732b960591b604082015260600190565b634e487b7160e01b600052603260045260246000fd5b6000808335601e19843603018112611ed457600080fd5b83018035915067ffffffffffffffff821115611eef57600080fd5b6020019150600581901b3603821315611f0757600080fd5b9250929050565b600060018201611f2057611f20611e36565b506001019056fe9b779b17422d0df92223018b32b4d1fa46e071723d6817e2486d003becc55f00a264697066735822122062e38340d68e4518997594f8e371edfb929b08d3610f5b40be900fae9fbf7fe964736f6c63430008180033",
  "linkReferences": {},
  "deployedLinkReferences": {}
}